{
  "contractName": "ParentChildRegistry",
  "abi": [
    {
      "anonymous": false,
      "inputs": [
        {
          "indexed": true,
          "internalType": "address",
          "name": "childAddress",
          "type": "address"
        },
        {
          "indexed": false,
          "internalType": "bytes32",
          "name": "fullName",
          "type": "bytes32"
        }
      ],
      "name": "ChildRegistered",
      "type": "event"
    },
    {
      "anonymous": false,
      "inputs": [
        {
          "indexed": true,
          "internalType": "address",
          "name": "parentAddress",
          "type": "address"
        },
        {
          "indexed": false,
          "internalType": "bytes32",
          "name": "fullName",
          "type": "bytes32"
        }
      ],
      "name": "ParentRegistered",
      "type": "event"
    },
    {
      "inputs": [
        {
          "internalType": "uint256",
          "name": "",
          "type": "uint256"
        }
      ],
      "name": "children",
      "outputs": [
        {
          "internalType": "bytes32",
          "name": "fullName",
          "type": "bytes32"
        },
        {
          "internalType": "uint16",
          "name": "dob",
          "type": "uint16"
        },
        {
          "internalType": "bytes32",
          "name": "gradeClass",
          "type": "bytes32"
        },
        {
          "internalType": "bytes32",
          "name": "studentID",
          "type": "bytes32"
        },
        {
          "internalType": "bytes32",
          "name": "passwordHash",
          "type": "bytes32"
        },
        {
          "internalType": "address",
          "name": "walletAddress",
          "type": "address"
        }
      ],
      "stateMutability": "view",
      "type": "function",
      "constant": true
    },
    {
      "inputs": [
        {
          "internalType": "uint256",
          "name": "",
          "type": "uint256"
        }
      ],
      "name": "parents",
      "outputs": [
        {
          "internalType": "bytes32",
          "name": "fullName",
          "type": "bytes32"
        },
        {
          "internalType": "string",
          "name": "email",
          "type": "string"
        },
        {
          "internalType": "string",
          "name": "phone",
          "type": "string"
        },
        {
          "internalType": "string",
          "name": "residentialAddress",
          "type": "string"
        },
        {
          "internalType": "uint16",
          "name": "dob",
          "type": "uint16"
        },
        {
          "internalType": "bytes32",
          "name": "govID",
          "type": "bytes32"
        },
        {
          "internalType": "bytes32",
          "name": "relationship",
          "type": "bytes32"
        },
        {
          "internalType": "bytes32",
          "name": "passwordHash",
          "type": "bytes32"
        },
        {
          "internalType": "address",
          "name": "walletAddress",
          "type": "address"
        }
      ],
      "stateMutability": "view",
      "type": "function",
      "constant": true
    },
    {
      "inputs": [
        {
          "internalType": "string",
          "name": "_fullName",
          "type": "string"
        },
        {
          "internalType": "string",
          "name": "_email",
          "type": "string"
        },
        {
          "internalType": "string",
          "name": "_phone",
          "type": "string"
        },
        {
          "internalType": "string",
          "name": "_residentialAddress",
          "type": "string"
        },
        {
          "internalType": "uint16",
          "name": "_dob",
          "type": "uint16"
        },
        {
          "internalType": "string",
          "name": "_govID",
          "type": "string"
        },
        {
          "internalType": "string",
          "name": "_relationship",
          "type": "string"
        },
        {
          "internalType": "string",
          "name": "_password",
          "type": "string"
        }
      ],
      "name": "registerParent",
      "outputs": [],
      "stateMutability": "nonpayable",
      "type": "function"
    },
    {
      "inputs": [
        {
          "internalType": "string",
          "name": "_fullName",
          "type": "string"
        },
        {
          "internalType": "uint16",
          "name": "_dob",
          "type": "uint16"
        },
        {
          "internalType": "string",
          "name": "_gradeClass",
          "type": "string"
        },
        {
          "internalType": "string",
          "name": "_studentID",
          "type": "string"
        },
        {
          "internalType": "string",
          "name": "_password",
          "type": "string"
        }
      ],
      "name": "registerChild",
      "outputs": [],
      "stateMutability": "nonpayable",
      "type": "function"
    },
    {
      "inputs": [],
      "name": "getParentCount",
      "outputs": [
        {
          "internalType": "uint256",
          "name": "",
          "type": "uint256"
        }
      ],
      "stateMutability": "view",
      "type": "function",
      "constant": true
    },
    {
      "inputs": [],
      "name": "getChildCount",
      "outputs": [
        {
          "internalType": "uint256",
          "name": "",
          "type": "uint256"
        }
      ],
      "stateMutability": "view",
      "type": "function",
      "constant": true
    },
    {
      "inputs": [
        {
          "internalType": "uint256",
          "name": "index",
          "type": "uint256"
        }
      ],
      "name": "getParent",
      "outputs": [
        {
          "components": [
            {
              "internalType": "bytes32",
              "name": "fullName",
              "type": "bytes32"
            },
            {
              "internalType": "string",
              "name": "email",
              "type": "string"
            },
            {
              "internalType": "string",
              "name": "phone",
              "type": "string"
            },
            {
              "internalType": "string",
              "name": "residentialAddress",
              "type": "string"
            },
            {
              "internalType": "uint16",
              "name": "dob",
              "type": "uint16"
            },
            {
              "internalType": "bytes32",
              "name": "govID",
              "type": "bytes32"
            },
            {
              "internalType": "bytes32",
              "name": "relationship",
              "type": "bytes32"
            },
            {
              "internalType": "bytes32",
              "name": "passwordHash",
              "type": "bytes32"
            },
            {
              "internalType": "address",
              "name": "walletAddress",
              "type": "address"
            }
          ],
          "internalType": "struct ParentChildRegistry.Parent",
          "name": "",
          "type": "tuple"
        }
      ],
      "stateMutability": "view",
      "type": "function",
      "constant": true
    },
    {
      "inputs": [
        {
          "internalType": "uint256",
          "name": "index",
          "type": "uint256"
        }
      ],
      "name": "getChild",
      "outputs": [
        {
          "components": [
            {
              "internalType": "bytes32",
              "name": "fullName",
              "type": "bytes32"
            },
            {
              "internalType": "uint16",
              "name": "dob",
              "type": "uint16"
            },
            {
              "internalType": "bytes32",
              "name": "gradeClass",
              "type": "bytes32"
            },
            {
              "internalType": "bytes32",
              "name": "studentID",
              "type": "bytes32"
            },
            {
              "internalType": "bytes32",
              "name": "passwordHash",
              "type": "bytes32"
            },
            {
              "internalType": "address",
              "name": "walletAddress",
              "type": "address"
            }
          ],
          "internalType": "struct ParentChildRegistry.Child",
          "name": "",
          "type": "tuple"
        }
      ],
      "stateMutability": "view",
      "type": "function",
      "constant": true
    },
    {
      "inputs": [],
      "name": "getAllParents",
      "outputs": [
        {
          "components": [
            {
              "internalType": "bytes32",
              "name": "fullName",
              "type": "bytes32"
            },
            {
              "internalType": "string",
              "name": "email",
              "type": "string"
            },
            {
              "internalType": "string",
              "name": "phone",
              "type": "string"
            },
            {
              "internalType": "string",
              "name": "residentialAddress",
              "type": "string"
            },
            {
              "internalType": "uint16",
              "name": "dob",
              "type": "uint16"
            },
            {
              "internalType": "bytes32",
              "name": "govID",
              "type": "bytes32"
            },
            {
              "internalType": "bytes32",
              "name": "relationship",
              "type": "bytes32"
            },
            {
              "internalType": "bytes32",
              "name": "passwordHash",
              "type": "bytes32"
            },
            {
              "internalType": "address",
              "name": "walletAddress",
              "type": "address"
            }
          ],
          "internalType": "struct ParentChildRegistry.Parent[]",
          "name": "",
          "type": "tuple[]"
        }
      ],
      "stateMutability": "view",
      "type": "function",
      "constant": true
    },
    {
      "inputs": [],
      "name": "getAllChildren",
      "outputs": [
        {
          "components": [
            {
              "internalType": "bytes32",
              "name": "fullName",
              "type": "bytes32"
            },
            {
              "internalType": "uint16",
              "name": "dob",
              "type": "uint16"
            },
            {
              "internalType": "bytes32",
              "name": "gradeClass",
              "type": "bytes32"
            },
            {
              "internalType": "bytes32",
              "name": "studentID",
              "type": "bytes32"
            },
            {
              "internalType": "bytes32",
              "name": "passwordHash",
              "type": "bytes32"
            },
            {
              "internalType": "address",
              "name": "walletAddress",
              "type": "address"
            }
          ],
          "internalType": "struct ParentChildRegistry.Child[]",
          "name": "",
          "type": "tuple[]"
        }
      ],
      "stateMutability": "view",
      "type": "function",
      "constant": true
    },
    {
      "inputs": [
        {
          "internalType": "string",
          "name": "_email",
          "type": "string"
        },
        {
          "internalType": "string",
          "name": "_password",
          "type": "string"
        }
      ],
      "name": "loginParent",
      "outputs": [
        {
          "internalType": "bool",
          "name": "",
          "type": "bool"
        }
      ],
      "stateMutability": "view",
      "type": "function",
      "constant": true
    },
    {
      "inputs": [
        {
          "internalType": "string",
          "name": "_studentID",
          "type": "string"
        },
        {
          "internalType": "string",
          "name": "_password",
          "type": "string"
        }
      ],
      "name": "loginChild",
      "outputs": [
        {
          "internalType": "bool",
          "name": "",
          "type": "bool"
        }
      ],
      "stateMutability": "view",
      "type": "function",
      "constant": true
    }
  ],
  "bytecode": "0x608060405234801561001057600080fd5b506128b0806100206000396000f3fe608060405234801561001057600080fd5b50600436106100b45760003560e01c8063b90aa5d811610071578063b90aa5d8146101ae578063b92ddeb0146101de578063c8a4406e146101fc578063c909ea421461021a578063e486054c1461024a578063f1d5cb911461027a576100b4565b8063414533de146100b957806360cc982b146100e9578063664d6e44146101055780637002ce4214610123578063898572a614610158578063a2ed365b14610190575b600080fd5b6100d360048036038101906100ce9190611aba565b610296565b6040516100e091906123e5565b60405180910390f35b61010360048036038101906100fe9190611889565b610594565b005b61010d61090d565b60405161011a9190612407565b60405180910390f35b61013d60048036038101906101389190611aba565b610919565b60405161014f96959493929190612289565b60405180910390f35b610172600480360381019061016d9190611aba565b610993565b604051610187999897969594939291906121e7565b60405180910390f35b610198610bb7565b6040516101a59190612407565b60405180910390f35b6101c860048036038101906101c3919061181d565b610bc4565b6040516101d591906121b1565b60405180910390f35b6101e6610d1d565b6040516101f3919061216d565b60405180910390f35b610204610e1a565b604051610211919061218f565b60405180910390f35b610234600480360381019061022f9190611aba565b6110ce565b60405161024191906123ca565b60405180910390f35b610264600480360381019061025f919061181d565b611215565b60405161027191906121b1565b60405180910390f35b610294600480360381019061028f91906119e3565b61136d565b005b61029e61161a565b60008054905082106102e5576040517f08c379a00000000000000000000000000000000000000000000000000000000081526004016102dc906123aa565b60405180910390fd5b6000828154811061031f577f4e487b7100000000000000000000000000000000000000000000000000000000600052603260045260246000fd5b90600052602060002090600902016040518061012001604052908160008201548152602001600182018054610353906125d9565b80601f016020809104026020016040519081016040528092919081815260200182805461037f906125d9565b80156103cc5780601f106103a1576101008083540402835291602001916103cc565b820191906000526020600020905b8154815290600101906020018083116103af57829003601f168201915b505050505081526020016002820180546103e5906125d9565b80601f0160208091040260200160405190810160405280929190818152602001828054610411906125d9565b801561045e5780601f106104335761010080835404028352916020019161045e565b820191906000526020600020905b81548152906001019060200180831161044157829003601f168201915b50505050508152602001600382018054610477906125d9565b80601f01602080910402602001604051908101604052809291908181526020018280546104a3906125d9565b80156104f05780601f106104c5576101008083540402835291602001916104f0565b820191906000526020600020905b8154815290600101906020018083116104d357829003601f168201915b505050505081526020016004820160009054906101000a900461ffff1661ffff1661ffff1681526020016005820154815260200160068201548152602001600782015481526020016008820160009054906101000a900473ffffffffffffffffffffffffffffffffffffffff1673ffffffffffffffffffffffffffffffffffffffff1673ffffffffffffffffffffffffffffffffffffffff16815250509050919050565b60008851116105d8576040517f08c379a00000000000000000000000000000000000000000000000000000000081526004016105cf9061236a565b60405180910390fd5b600087511161061c576040517f08c379a00000000000000000000000000000000000000000000000000000000081526004016106139061234a565b60405180910390fd5b6000865111610660576040517f08c379a00000000000000000000000000000000000000000000000000000000081526004016106579061230a565b60405180910390fd5b60008351116106a4576040517f08c379a000000000000000000000000000000000000000000000000000000000815260040161069b9061238a565b60405180910390fd5b61076c8461ffff161180156106bf57506107e88461ffff1611155b6106fe576040517f08c379a00000000000000000000000000000000000000000000000000000000081526004016106f5906122ea565b60405180910390fd5b60006040518061012001604052806107158b6115f0565b81526020018981526020018881526020018781526020018661ffff16815260200161073f866115f0565b815260200161074d856115f0565b815260200183604051602001610763919061213f565b6040516020818303038152906040528051906020012081526020013373ffffffffffffffffffffffffffffffffffffffff1681525090806001815401808255809150506001900390600052602060002090600902016000909190919091506000820151816000015560208201518160010190805190602001906107e792919061168c565b50604082015181600201908051906020019061080492919061168c565b50606082015181600301908051906020019061082192919061168c565b5060808201518160040160006101000a81548161ffff021916908361ffff16021790555060a0820151816005015560c0820151816006015560e082015181600701556101008201518160080160006101000a81548173ffffffffffffffffffffffffffffffffffffffff021916908373ffffffffffffffffffffffffffffffffffffffff16021790555050503373ffffffffffffffffffffffffffffffffffffffff167f548ddb127b68ed8bcd83116ea3fc17b611d6ab2f5059a461b6e713889a65f0196108ee8a6115f0565b6040516108fb91906121cc565b60405180910390a25050505050505050565b60008080549050905090565b6001818154811061092957600080fd5b90600052602060002090600602016000915090508060000154908060010160009054906101000a900461ffff16908060020154908060030154908060040154908060050160009054906101000a900473ffffffffffffffffffffffffffffffffffffffff16905086565b600081815481106109a357600080fd5b90600052602060002090600902016000915090508060000154908060010180546109cc906125d9565b80601f01602080910402602001604051908101604052809291908181526020018280546109f8906125d9565b8015610a455780601f10610a1a57610100808354040283529160200191610a45565b820191906000526020600020905b815481529060010190602001808311610a2857829003601f168201915b505050505090806002018054610a5a906125d9565b80601f0160208091040260200160405190810160405280929190818152602001828054610a86906125d9565b8015610ad35780601f10610aa857610100808354040283529160200191610ad3565b820191906000526020600020905b815481529060010190602001808311610ab657829003601f168201915b505050505090806003018054610ae8906125d9565b80601f0160208091040260200160405190810160405280929190818152602001828054610b14906125d9565b8015610b615780601f10610b3657610100808354040283529160200191610b61565b820191906000526020600020905b815481529060010190602001808311610b4457829003601f168201915b5050505050908060040160009054906101000a900461ffff16908060050154908060060154908060070154908060080160009054906101000a900473ffffffffffffffffffffffffffffffffffffffff16905089565b6000600180549050905090565b600080600090505b600180549050811015610d115783604051602001610bea919061213f565b6040516020818303038152906040528051906020012060018281548110610c3a577f4e487b7100000000000000000000000000000000000000000000000000000000600052603260045260246000fd5b906000526020600020906006020160030154604051602001610c5c9190612124565b60405160208183030381529060405280519060200120148015610cef575082604051602001610c8b919061213f565b6040516020818303038152906040528051906020012060018281548110610cdb577f4e487b7100000000000000000000000000000000000000000000000000000000600052603260045260246000fd5b906000526020600020906006020160040154145b15610cfe576001915050610d17565b8080610d099061263c565b915050610bcc565b50600090505b92915050565b60606001805480602002602001604051908101604052809291908181526020016000905b82821015610e1157838290600052602060002090600602016040518060c0016040529081600082015481526020016001820160009054906101000a900461ffff1661ffff1661ffff1681526020016002820154815260200160038201548152602001600482015481526020016005820160009054906101000a900473ffffffffffffffffffffffffffffffffffffffff1673ffffffffffffffffffffffffffffffffffffffff1673ffffffffffffffffffffffffffffffffffffffff168152505081526020019060010190610d41565b50505050905090565b60606000805480602002602001604051908101604052809291908181526020016000905b828210156110c557838290600052602060002090600902016040518061012001604052908160008201548152602001600182018054610e7c906125d9565b80601f0160208091040260200160405190810160405280929190818152602001828054610ea8906125d9565b8015610ef55780601f10610eca57610100808354040283529160200191610ef5565b820191906000526020600020905b815481529060010190602001808311610ed857829003601f168201915b50505050508152602001600282018054610f0e906125d9565b80601f0160208091040260200160405190810160405280929190818152602001828054610f3a906125d9565b8015610f875780601f10610f5c57610100808354040283529160200191610f87565b820191906000526020600020905b815481529060010190602001808311610f6a57829003601f168201915b50505050508152602001600382018054610fa0906125d9565b80601f0160208091040260200160405190810160405280929190818152602001828054610fcc906125d9565b80156110195780601f10610fee57610100808354040283529160200191611019565b820191906000526020600020905b815481529060010190602001808311610ffc57829003601f168201915b505050505081526020016004820160009054906101000a900461ffff1661ffff1661ffff1681526020016005820154815260200160068201548152602001600782015481526020016008820160009054906101000a900473ffffffffffffffffffffffffffffffffffffffff1673ffffffffffffffffffffffffffffffffffffffff1673ffffffffffffffffffffffffffffffffffffffff168152505081526020019060010190610e3e565b50505050905090565b6110d6611712565b600180549050821061111d576040517f08c379a0000000000000000000000000000000000000000000000000000000008152600401611114906123aa565b60405180910390fd5b60018281548110611157577f4e487b7100000000000000000000000000000000000000000000000000000000600052603260045260246000fd5b90600052602060002090600602016040518060c0016040529081600082015481526020016001820160009054906101000a900461ffff1661ffff1661ffff1681526020016002820154815260200160038201548152602001600482015481526020016005820160009054906101000a900473ffffffffffffffffffffffffffffffffffffffff1673ffffffffffffffffffffffffffffffffffffffff1673ffffffffffffffffffffffffffffffffffffffff16815250509050919050565b600080600090505b600080549050811015611361578360405160200161123b919061213f565b604051602081830303815290604052805190602001206000828154811061128b577f4e487b7100000000000000000000000000000000000000000000000000000000600052603260045260246000fd5b90600052602060002090600902016001016040516020016112ac9190612156565b6040516020818303038152906040528051906020012014801561133f5750826040516020016112db919061213f565b604051602081830303815290604052805190602001206000828154811061132b577f4e487b7100000000000000000000000000000000000000000000000000000000600052603260045260246000fd5b906000526020600020906009020160070154145b1561134e576001915050611367565b80806113599061263c565b91505061121d565b50600090505b92915050565b60008551116113b1576040517f08c379a00000000000000000000000000000000000000000000000000000000081526004016113a89061236a565b60405180910390fd5b60008251116113f5576040517f08c379a00000000000000000000000000000000000000000000000000000000081526004016113ec9061232a565b60405180910390fd5b61076c8461ffff1611801561141057506107e88461ffff1611155b61144f576040517f08c379a0000000000000000000000000000000000000000000000000000000008152600401611446906122ea565b60405180910390fd5b60016040518060c00160405280611465886115f0565b81526020018661ffff16815260200161147d866115f0565b815260200161148b856115f0565b8152602001836040516020016114a1919061213f565b6040516020818303038152906040528051906020012081526020013373ffffffffffffffffffffffffffffffffffffffff1681525090806001815401808255809150506001900390600052602060002090600602016000909190919091506000820151816000015560208201518160010160006101000a81548161ffff021916908361ffff16021790555060408201518160020155606082015181600301556080820151816004015560a08201518160050160006101000a81548173ffffffffffffffffffffffffffffffffffffffff021916908373ffffffffffffffffffffffffffffffffffffffff16021790555050503373ffffffffffffffffffffffffffffffffffffffff167f771ba607a2e30b8543df8ea96cdc49616a9b4839dae5636165b20c046485154b6115d4876115f0565b6040516115e191906121cc565b60405180910390a25050505050565b60008082905060008151141561160c576000801b915050611615565b60208301519150505b919050565b60405180610120016040528060008019168152602001606081526020016060815260200160608152602001600061ffff168152602001600080191681526020016000801916815260200160008019168152602001600073ffffffffffffffffffffffffffffffffffffffff1681525090565b828054611698906125d9565b90600052602060002090601f0160209004810192826116ba5760008555611701565b82601f106116d357805160ff1916838001178555611701565b82800160010185558215611701579182015b828111156117005782518255916020019190600101906116e5565b5b50905061170e919061176e565b5090565b6040518060c0016040528060008019168152602001600061ffff168152602001600080191681526020016000801916815260200160008019168152602001600073ffffffffffffffffffffffffffffffffffffffff1681525090565b5b8082111561178757600081600090555060010161176f565b5090565b600061179e61179984612447565b612422565b9050828152602081018484840111156117b657600080fd5b6117c1848285612597565b509392505050565b600082601f8301126117da57600080fd5b81356117ea84826020860161178b565b91505092915050565b6000813590506118028161284c565b92915050565b60008135905061181781612863565b92915050565b6000806040838503121561183057600080fd5b600083013567ffffffffffffffff81111561184a57600080fd5b611856858286016117c9565b925050602083013567ffffffffffffffff81111561187357600080fd5b61187f858286016117c9565b9150509250929050565b600080600080600080600080610100898b0312156118a657600080fd5b600089013567ffffffffffffffff8111156118c057600080fd5b6118cc8b828c016117c9565b985050602089013567ffffffffffffffff8111156118e957600080fd5b6118f58b828c016117c9565b975050604089013567ffffffffffffffff81111561191257600080fd5b61191e8b828c016117c9565b965050606089013567ffffffffffffffff81111561193b57600080fd5b6119478b828c016117c9565b95505060806119588b828c016117f3565b94505060a089013567ffffffffffffffff81111561197557600080fd5b6119818b828c016117c9565b93505060c089013567ffffffffffffffff81111561199e57600080fd5b6119aa8b828c016117c9565b92505060e089013567ffffffffffffffff8111156119c757600080fd5b6119d38b828c016117c9565b9150509295985092959890939650565b600080600080600060a086880312156119fb57600080fd5b600086013567ffffffffffffffff811115611a1557600080fd5b611a21888289016117c9565b9550506020611a32888289016117f3565b945050604086013567ffffffffffffffff811115611a4f57600080fd5b611a5b888289016117c9565b935050606086013567ffffffffffffffff811115611a7857600080fd5b611a84888289016117c9565b925050608086013567ffffffffffffffff811115611aa157600080fd5b611aad888289016117c9565b9150509295509295909350565b600060208284031215611acc57600080fd5b6000611ada84828501611808565b91505092915050565b6000611aef8383611e5b565b60c08301905092915050565b6000611b078383611f51565b905092915050565b611b1881612537565b82525050565b611b2781612537565b82525050565b6000611b38826124ad565b611b4281856124e8565b9350611b4d83612478565b8060005b83811015611b7e578151611b658882611ae3565b9750611b70836124ce565b925050600181019050611b51565b5085935050505092915050565b6000611b96826124b8565b611ba081856124f9565b935083602082028501611bb285612488565b8060005b85811015611bee5784840389528151611bcf8582611afb565b9450611bda836124db565b925060208a01995050600181019050611bb6565b50829750879550505050505092915050565b611c0981612549565b82525050565b611c1881612555565b82525050565b611c2781612555565b82525050565b611c3e611c3982612555565b612685565b82525050565b6000611c4f826124c3565b611c59818561250a565b9350611c698185602086016125a6565b611c728161271c565b840191505092915050565b6000611c88826124c3565b611c92818561251b565b9350611ca28185602086016125a6565b611cab8161271c565b840191505092915050565b6000611cc1826124c3565b611ccb818561252c565b9350611cdb8185602086016125a6565b80840191505092915050565b60008154611cf4816125d9565b611cfe818661252c565b94506001821660008114611d195760018114611d2a57611d5d565b60ff19831686528186019350611d5d565b611d3385612498565b60005b83811015611d5557815481890152600182019150602081019050611d36565b838801955050505b50505092915050565b6000611d7360158361251b565b9150611d7e8261272d565b602082019050919050565b6000611d9660188361251b565b9150611da182612756565b602082019050919050565b6000611db960168361251b565b9150611dc48261277f565b602082019050919050565b6000611ddc60118361251b565b9150611de7826127a8565b602082019050919050565b6000611dff60158361251b565b9150611e0a826127d1565b602082019050919050565b6000611e2260118361251b565b9150611e2d826127fa565b602082019050919050565b6000611e4560138361251b565b9150611e5082612823565b602082019050919050565b60c082016000820151611e716000850182611c0f565b506020820151611e8460208501826120f7565b506040820151611e976040850182611c0f565b506060820151611eaa6060850182611c0f565b506080820151611ebd6080850182611c0f565b5060a0820151611ed060a0850182611b0f565b50505050565b60c082016000820151611eec6000850182611c0f565b506020820151611eff60208501826120f7565b506040820151611f126040850182611c0f565b506060820151611f256060850182611c0f565b506080820151611f386080850182611c0f565b5060a0820151611f4b60a0850182611b0f565b50505050565b600061012083016000830151611f6a6000860182611c0f565b5060208301518482036020860152611f828282611c44565b91505060408301518482036040860152611f9c8282611c44565b91505060608301518482036060860152611fb68282611c44565b9150506080830151611fcb60808601826120f7565b5060a0830151611fde60a0860182611c0f565b5060c0830151611ff160c0860182611c0f565b5060e083015161200460e0860182611c0f565b50610100830151612019610100860182611b0f565b508091505092915050565b60006101208301600083015161203d6000860182611c0f565b50602083015184820360208601526120558282611c44565b9150506040830151848203604086015261206f8282611c44565b915050606083015184820360608601526120898282611c44565b915050608083015161209e60808601826120f7565b5060a08301516120b160a0860182611c0f565b5060c08301516120c460c0860182611c0f565b5060e08301516120d760e0860182611c0f565b506101008301516120ec610100860182611b0f565b508091505092915050565b6121008161255f565b82525050565b61210f8161255f565b82525050565b61211e8161258d565b82525050565b60006121308284611c2d565b60208201915081905092915050565b600061214b8284611cb6565b915081905092915050565b60006121628284611ce7565b915081905092915050565b600060208201905081810360008301526121878184611b2d565b905092915050565b600060208201905081810360008301526121a98184611b8b565b905092915050565b60006020820190506121c66000830184611c00565b92915050565b60006020820190506121e16000830184611c1e565b92915050565b6000610120820190506121fd600083018c611c1e565b818103602083015261220f818b611c7d565b90508181036040830152612223818a611c7d565b905081810360608301526122378189611c7d565b90506122466080830188612106565b61225360a0830187611c1e565b61226060c0830186611c1e565b61226d60e0830185611c1e565b61227b610100830184611b1e565b9a9950505050505050505050565b600060c08201905061229e6000830189611c1e565b6122ab6020830188612106565b6122b86040830187611c1e565b6122c56060830186611c1e565b6122d26080830185611c1e565b6122df60a0830184611b1e565b979650505050505050565b6000602082019050818103600083015261230381611d66565b9050919050565b6000602082019050818103600083015261232381611d89565b9050919050565b6000602082019050818103600083015261234381611dac565b9050919050565b6000602082019050818103600083015261236381611dcf565b9050919050565b6000602082019050818103600083015261238381611df2565b9050919050565b600060208201905081810360008301526123a381611e15565b9050919050565b600060208201905081810360008301526123c381611e38565b9050919050565b600060c0820190506123df6000830184611ed6565b92915050565b600060208201905081810360008301526123ff8184612024565b905092915050565b600060208201905061241c6000830184612115565b92915050565b600061242c61243d565b9050612438828261260b565b919050565b6000604051905090565b600067ffffffffffffffff821115612462576124616126ed565b5b61246b8261271c565b9050602081019050919050565b6000819050602082019050919050565b6000819050602082019050919050565b60008190508160005260206000209050919050565b600081519050919050565b600081519050919050565b600081519050919050565b6000602082019050919050565b6000602082019050919050565b600082825260208201905092915050565b600082825260208201905092915050565b600082825260208201905092915050565b600082825260208201905092915050565b600081905092915050565b60006125428261256d565b9050919050565b60008115159050919050565b6000819050919050565b600061ffff82169050919050565b600073ffffffffffffffffffffffffffffffffffffffff82169050919050565b6000819050919050565b82818337600083830152505050565b60005b838110156125c45780820151818401526020810190506125a9565b838111156125d3576000848401525b50505050565b600060028204905060018216806125f157607f821691505b60208210811415612605576126046126be565b5b50919050565b6126148261271c565b810181811067ffffffffffffffff82111715612633576126326126ed565b5b80604052505050565b60006126478261258d565b91507fffffffffffffffffffffffffffffffffffffffffffffffffffffffffffffffff82141561267a5761267961268f565b5b600182019050919050565b6000819050919050565b7f4e487b7100000000000000000000000000000000000000000000000000000000600052601160045260246000fd5b7f4e487b7100000000000000000000000000000000000000000000000000000000600052602260045260246000fd5b7f4e487b7100000000000000000000000000000000000000000000000000000000600052604160045260246000fd5b6000601f19601f8301169050919050565b7f496e76616c69642079656172206f662062697274680000000000000000000000600082015250565b7f50686f6e65206e756d6265722069732072657175697265640000000000000000600082015250565b7f53747564656e7420494420697320726571756972656400000000000000000000600082015250565b7f456d61696c206973207265717569726564000000000000000000000000000000600082015250565b7f46756c6c206e616d652069732072657175697265640000000000000000000000600082015250565b7f476f764944206973207265717569726564000000000000000000000000000000600082015250565b7f496e646578206f7574206f6620626f756e647300000000000000000000000000600082015250565b6128558161255f565b811461286057600080fd5b50565b61286c8161258d565b811461287757600080fd5b5056fea26469706673582212208966e73b32c21f88743ba1737233623f6045d1aaf5eefabc4feb6e0e06772f1164736f6c63430008040033",
  "immutableReferences": {},
  "source": "// SPDX-License-Identifier: MIT\r\npragma solidity ^0.8.4;\r\n\r\ncontract ParentChildRegistry {\r\n    struct Parent {\r\n        bytes32 fullName;\r\n        string email;\r\n        string phone;\r\n        string residentialAddress;\r\n        uint16 dob;\r\n        bytes32 govID;\r\n        bytes32 relationship;\r\n        bytes32 passwordHash; // Store password as a hashed value\r\n        address walletAddress; // Store MetaMask address\r\n    }\r\n\r\n    struct Child {\r\n        bytes32 fullName;\r\n        uint16 dob;\r\n        bytes32 gradeClass;\r\n        bytes32 studentID;\r\n        bytes32 passwordHash; // Store password as a hashed value\r\n        address walletAddress; // Store MetaMask address for the child\r\n    }\r\n\r\n    Parent[] public parents; // Store parents in an array\r\n    Child[] public children; // Store children in an array\r\n\r\n    event ParentRegistered(address indexed parentAddress, bytes32 fullName);\r\n    event ChildRegistered(address indexed childAddress, bytes32 fullName);\r\n\r\n    function stringToBytes32(string memory source) internal pure returns (bytes32 result) {\r\n        bytes memory tempEmptyStringTest = bytes(source);\r\n        if (tempEmptyStringTest.length == 0) {\r\n            return 0x0;\r\n        }\r\n        assembly {\r\n            result := mload(add(source, 32))\r\n        }\r\n    }\r\n\r\n    function registerParent(\r\n        string memory _fullName,\r\n        string memory _email,\r\n        string memory _phone,\r\n        string memory _residentialAddress,\r\n        uint16 _dob,\r\n        string memory _govID,\r\n        string memory _relationship,\r\n        string memory _password\r\n    ) public {\r\n        require(bytes(_fullName).length > 0, \"Full name is required\");\r\n        require(bytes(_email).length > 0, \"Email is required\");\r\n        require(bytes(_phone).length > 0, \"Phone number is required\");\r\n        require(bytes(_govID).length > 0, \"GovID is required\");\r\n        require(_dob > 1900 && _dob <= 2024, \"Invalid year of birth\");\r\n\r\n        parents.push(Parent({\r\n            fullName: stringToBytes32(_fullName),\r\n            email: _email,\r\n            phone: _phone,\r\n            residentialAddress: _residentialAddress,\r\n            dob: _dob,\r\n            govID: stringToBytes32(_govID),\r\n            relationship: stringToBytes32(_relationship),\r\n            passwordHash: keccak256(abi.encodePacked(_password)), // Hashing password\r\n            walletAddress: msg.sender // Save MetaMask address\r\n        }));\r\n        emit ParentRegistered(msg.sender, stringToBytes32(_fullName));\r\n    }\r\n\r\n    function registerChild(\r\n        string memory _fullName,\r\n        uint16 _dob,\r\n        string memory _gradeClass,\r\n        string memory _studentID,\r\n        string memory _password\r\n    ) public {\r\n        require(bytes(_fullName).length > 0, \"Full name is required\");\r\n        require(bytes(_studentID).length > 0, \"Student ID is required\");\r\n        require(_dob > 1900 && _dob <= 2024, \"Invalid year of birth\");\r\n\r\n        children.push(Child({\r\n            fullName: stringToBytes32(_fullName),\r\n            dob: _dob,\r\n            gradeClass: stringToBytes32(_gradeClass),\r\n            studentID: stringToBytes32(_studentID),\r\n            passwordHash: keccak256(abi.encodePacked(_password)), // Hashing password\r\n            walletAddress: msg.sender // Save child's MetaMask address\r\n        }));\r\n        emit ChildRegistered(msg.sender, stringToBytes32(_fullName));\r\n    }\r\n\r\n    // Function to get the number of registered parents\r\n    function getParentCount() public view returns (uint256) {\r\n        return parents.length;\r\n    }\r\n\r\n    // Function to get the number of registered children\r\n    function getChildCount() public view returns (uint256) {\r\n        return children.length;\r\n    }\r\n\r\n    // Function to get a parent by index\r\n    function getParent(uint256 index) public view returns (Parent memory) {\r\n        require(index < parents.length, \"Index out of bounds\");\r\n        return parents[index];\r\n    }\r\n\r\n    // Function to get a child by index\r\n    function getChild(uint256 index) public view returns (Child memory) {\r\n        require(index < children.length, \"Index out of bounds\");\r\n        return children[index];\r\n    }\r\n\r\n    // Function to get all parents\r\n    function getAllParents() public view returns (Parent[] memory) {\r\n        return parents; // Return all parents\r\n    }\r\n\r\n    // Function to get all children\r\n    function getAllChildren() public view returns (Child[] memory) {\r\n        return children; // Return all children\r\n    }\r\n\r\n    // Login functions\r\n    function loginParent(string memory _email, string memory _password) public view returns (bool) {\r\n        for (uint256 i = 0; i < parents.length; i++) {\r\n            if (keccak256(abi.encodePacked(parents[i].email)) == keccak256(abi.encodePacked(_email)) && \r\n                parents[i].passwordHash == keccak256(abi.encodePacked(_password))) {\r\n                return true; // Valid login\r\n            }\r\n        }\r\n        return false; // Invalid login\r\n    }\r\n\r\n    function loginChild(string memory _studentID, string memory _password) public view returns (bool) {\r\n        for (uint256 i = 0; i < children.length; i++) {\r\n            if (keccak256(abi.encodePacked(children[i].studentID)) == keccak256(abi.encodePacked(_studentID)) && \r\n                children[i].passwordHash == keccak256(abi.encodePacked(_password))) {\r\n                return true; // Valid login\r\n            }\r\n        }\r\n        return false; // Invalid login\r\n    }\r\n}\r\n",
  "sourcePath": "C:\\Users\\ryank\\Desktop\\TimelockDApp Final Submission\\contracts\\ParentChildRegistry.sol",
  "compiler": {
    "name": "solc",
    "version": "0.8.4+commit.c7e474f2.Emscripten.clang"
  },
  "schemaVersion": "3.4.16",
  "updatedAt": "2024-09-26T10:46:10.787Z",
  "networkType": "ethereum",
  "devdoc": {
    "kind": "dev",
    "methods": {},
    "version": 1
  },
  "userdoc": {
    "kind": "user",
    "methods": {},
    "version": 1
  }
}