{
  "contractName": "TimeLock",
  "abi": [
    {
      "inputs": [],
      "stateMutability": "nonpayable",
      "type": "constructor"
    },
    {
      "inputs": [
        {
          "internalType": "bytes32",
          "name": "txId",
          "type": "bytes32"
        }
      ],
      "name": "AlreadyQueuedError",
      "type": "error"
    },
    {
      "inputs": [],
      "name": "NotOwnerError",
      "type": "error"
    },
    {
      "inputs": [
        {
          "internalType": "bytes32",
          "name": "txId",
          "type": "bytes32"
        }
      ],
      "name": "NotQueuedError",
      "type": "error"
    },
    {
      "inputs": [
        {
          "internalType": "uint256",
          "name": "blockTimestamp",
          "type": "uint256"
        },
        {
          "internalType": "uint256",
          "name": "expiresAt",
          "type": "uint256"
        }
      ],
      "name": "TimestampExpiredError",
      "type": "error"
    },
    {
      "inputs": [
        {
          "internalType": "uint256",
          "name": "blockTimestamp",
          "type": "uint256"
        },
        {
          "internalType": "uint256",
          "name": "timestamp",
          "type": "uint256"
        }
      ],
      "name": "TimestampNotInRangeError",
      "type": "error"
    },
    {
      "inputs": [
        {
          "internalType": "uint256",
          "name": "blockTimestmap",
          "type": "uint256"
        },
        {
          "internalType": "uint256",
          "name": "timestamp",
          "type": "uint256"
        }
      ],
      "name": "TimestampNotPassedError",
      "type": "error"
    },
    {
      "inputs": [],
      "name": "TxFailedError",
      "type": "error"
    },
    {
      "anonymous": false,
      "inputs": [
        {
          "indexed": true,
          "internalType": "bytes32",
          "name": "txId",
          "type": "bytes32"
        }
      ],
      "name": "Cancel",
      "type": "event"
    },
    {
      "anonymous": false,
      "inputs": [
        {
          "indexed": true,
          "internalType": "bytes32",
          "name": "txId",
          "type": "bytes32"
        },
        {
          "indexed": true,
          "internalType": "address",
          "name": "target",
          "type": "address"
        },
        {
          "indexed": false,
          "internalType": "uint256",
          "name": "timestamp",
          "type": "uint256"
        },
        {
          "indexed": false,
          "internalType": "uint256",
          "name": "amount",
          "type": "uint256"
        }
      ],
      "name": "Execute",
      "type": "event"
    },
    {
      "anonymous": false,
      "inputs": [
        {
          "indexed": true,
          "internalType": "bytes32",
          "name": "txId",
          "type": "bytes32"
        },
        {
          "indexed": true,
          "internalType": "address",
          "name": "target",
          "type": "address"
        },
        {
          "indexed": false,
          "internalType": "uint256",
          "name": "timestamp",
          "type": "uint256"
        },
        {
          "indexed": false,
          "internalType": "uint256",
          "name": "amount",
          "type": "uint256"
        }
      ],
      "name": "Queue",
      "type": "event"
    },
    {
      "anonymous": false,
      "inputs": [
        {
          "indexed": false,
          "internalType": "uint256",
          "name": "requestId",
          "type": "uint256"
        }
      ],
      "name": "RequestCanceled",
      "type": "event"
    },
    {
      "anonymous": false,
      "inputs": [
        {
          "indexed": false,
          "internalType": "uint256",
          "name": "requestNo",
          "type": "uint256"
        },
        {
          "indexed": false,
          "internalType": "address",
          "name": "requestor",
          "type": "address"
        },
        {
          "indexed": false,
          "internalType": "uint256",
          "name": "time",
          "type": "uint256"
        },
        {
          "indexed": false,
          "internalType": "uint256",
          "name": "amount",
          "type": "uint256"
        }
      ],
      "name": "RequestSent",
      "type": "event"
    },
    {
      "anonymous": false,
      "inputs": [
        {
          "indexed": true,
          "internalType": "bytes32",
          "name": "txId",
          "type": "bytes32"
        },
        {
          "indexed": false,
          "internalType": "address",
          "name": "newTarget",
          "type": "address"
        },
        {
          "indexed": false,
          "internalType": "uint256",
          "name": "newTimestamp",
          "type": "uint256"
        },
        {
          "indexed": false,
          "internalType": "uint256",
          "name": "amount",
          "type": "uint256"
        }
      ],
      "name": "TransactionModified",
      "type": "event"
    },
    {
      "inputs": [],
      "name": "GRACE_PERIOD",
      "outputs": [
        {
          "internalType": "uint256",
          "name": "",
          "type": "uint256"
        }
      ],
      "stateMutability": "view",
      "type": "function",
      "constant": true
    },
    {
      "inputs": [],
      "name": "MAX_DELAY",
      "outputs": [
        {
          "internalType": "uint256",
          "name": "",
          "type": "uint256"
        }
      ],
      "stateMutability": "view",
      "type": "function",
      "constant": true
    },
    {
      "inputs": [],
      "name": "MIN_DELAY",
      "outputs": [
        {
          "internalType": "uint256",
          "name": "",
          "type": "uint256"
        }
      ],
      "stateMutability": "view",
      "type": "function",
      "constant": true
    },
    {
      "inputs": [
        {
          "internalType": "uint256",
          "name": "",
          "type": "uint256"
        }
      ],
      "name": "keys",
      "outputs": [
        {
          "internalType": "bytes32",
          "name": "",
          "type": "bytes32"
        }
      ],
      "stateMutability": "view",
      "type": "function",
      "constant": true
    },
    {
      "inputs": [
        {
          "internalType": "address",
          "name": "",
          "type": "address"
        }
      ],
      "name": "nonces",
      "outputs": [
        {
          "internalType": "uint256",
          "name": "",
          "type": "uint256"
        }
      ],
      "stateMutability": "view",
      "type": "function",
      "constant": true
    },
    {
      "inputs": [],
      "name": "owner",
      "outputs": [
        {
          "internalType": "address payable",
          "name": "",
          "type": "address"
        }
      ],
      "stateMutability": "view",
      "type": "function",
      "constant": true
    },
    {
      "inputs": [
        {
          "internalType": "bytes32",
          "name": "",
          "type": "bytes32"
        }
      ],
      "name": "queued",
      "outputs": [
        {
          "internalType": "address",
          "name": "target",
          "type": "address"
        },
        {
          "internalType": "uint256",
          "name": "timestamp",
          "type": "uint256"
        },
        {
          "internalType": "uint256",
          "name": "amount",
          "type": "uint256"
        },
        {
          "internalType": "uint8",
          "name": "status",
          "type": "uint8"
        }
      ],
      "stateMutability": "view",
      "type": "function",
      "constant": true
    },
    {
      "inputs": [],
      "name": "requestCounter",
      "outputs": [
        {
          "internalType": "uint256",
          "name": "",
          "type": "uint256"
        }
      ],
      "stateMutability": "view",
      "type": "function",
      "constant": true
    },
    {
      "inputs": [
        {
          "internalType": "uint256",
          "name": "",
          "type": "uint256"
        }
      ],
      "name": "requestIds",
      "outputs": [
        {
          "internalType": "uint256",
          "name": "",
          "type": "uint256"
        }
      ],
      "stateMutability": "view",
      "type": "function",
      "constant": true
    },
    {
      "inputs": [
        {
          "internalType": "uint256",
          "name": "",
          "type": "uint256"
        }
      ],
      "name": "studentRequests",
      "outputs": [
        {
          "internalType": "uint256",
          "name": "id",
          "type": "uint256"
        },
        {
          "internalType": "address",
          "name": "studentAddress",
          "type": "address"
        },
        {
          "internalType": "uint256",
          "name": "timestamp",
          "type": "uint256"
        },
        {
          "internalType": "uint256",
          "name": "amount",
          "type": "uint256"
        },
        {
          "internalType": "bool",
          "name": "active",
          "type": "bool"
        }
      ],
      "stateMutability": "view",
      "type": "function",
      "constant": true
    },
    {
      "stateMutability": "payable",
      "type": "receive",
      "payable": true
    },
    {
      "inputs": [
        {
          "internalType": "address",
          "name": "_target",
          "type": "address"
        },
        {
          "internalType": "uint256",
          "name": "_timestamp",
          "type": "uint256"
        },
        {
          "internalType": "uint256",
          "name": "_amount",
          "type": "uint256"
        },
        {
          "internalType": "uint256",
          "name": "nonce",
          "type": "uint256"
        }
      ],
      "name": "getTxId",
      "outputs": [
        {
          "internalType": "bytes32",
          "name": "",
          "type": "bytes32"
        }
      ],
      "stateMutability": "pure",
      "type": "function",
      "constant": true
    },
    {
      "inputs": [
        {
          "internalType": "address",
          "name": "_target",
          "type": "address"
        },
        {
          "internalType": "uint256",
          "name": "_timestamp",
          "type": "uint256"
        },
        {
          "internalType": "uint256",
          "name": "_amount",
          "type": "uint256"
        }
      ],
      "name": "queue",
      "outputs": [],
      "stateMutability": "payable",
      "type": "function",
      "payable": true
    },
    {
      "inputs": [
        {
          "internalType": "bytes32",
          "name": "_txId",
          "type": "bytes32"
        },
        {
          "internalType": "address",
          "name": "_newTarget",
          "type": "address"
        },
        {
          "internalType": "uint256",
          "name": "_newTimestamp",
          "type": "uint256"
        },
        {
          "internalType": "uint256",
          "name": "_newAmount",
          "type": "uint256"
        }
      ],
      "name": "modify",
      "outputs": [],
      "stateMutability": "payable",
      "type": "function",
      "payable": true
    },
    {
      "inputs": [
        {
          "internalType": "bytes32",
          "name": "_txId",
          "type": "bytes32"
        },
        {
          "internalType": "uint256",
          "name": "_latestTime",
          "type": "uint256"
        }
      ],
      "name": "execute",
      "outputs": [],
      "stateMutability": "payable",
      "type": "function",
      "payable": true
    },
    {
      "inputs": [
        {
          "internalType": "bytes32",
          "name": "_txId",
          "type": "bytes32"
        }
      ],
      "name": "cancel",
      "outputs": [],
      "stateMutability": "nonpayable",
      "type": "function"
    },
    {
      "inputs": [],
      "name": "getFutureTimestamp",
      "outputs": [
        {
          "internalType": "uint256",
          "name": "",
          "type": "uint256"
        }
      ],
      "stateMutability": "view",
      "type": "function",
      "constant": true
    },
    {
      "inputs": [],
      "name": "getCurrentTimestamp",
      "outputs": [
        {
          "internalType": "uint256",
          "name": "",
          "type": "uint256"
        }
      ],
      "stateMutability": "view",
      "type": "function",
      "constant": true
    },
    {
      "inputs": [],
      "name": "iterateTransactions",
      "outputs": [
        {
          "internalType": "bytes32[]",
          "name": "_keys",
          "type": "bytes32[]"
        },
        {
          "internalType": "address[]",
          "name": "targets",
          "type": "address[]"
        },
        {
          "internalType": "uint256[]",
          "name": "values",
          "type": "uint256[]"
        },
        {
          "internalType": "uint256[]",
          "name": "timestamps",
          "type": "uint256[]"
        },
        {
          "internalType": "uint8[]",
          "name": "queuedStatuses",
          "type": "uint8[]"
        }
      ],
      "stateMutability": "view",
      "type": "function",
      "constant": true
    },
    {
      "inputs": [
        {
          "internalType": "address",
          "name": "_studentAddress",
          "type": "address"
        },
        {
          "internalType": "uint256",
          "name": "_amount",
          "type": "uint256"
        },
        {
          "internalType": "uint256",
          "name": "_suggestedTime",
          "type": "uint256"
        }
      ],
      "name": "createRequest",
      "outputs": [],
      "stateMutability": "nonpayable",
      "type": "function"
    },
    {
      "inputs": [
        {
          "internalType": "uint256",
          "name": "_requestId",
          "type": "uint256"
        }
      ],
      "name": "cancelRequest",
      "outputs": [],
      "stateMutability": "nonpayable",
      "type": "function"
    },
    {
      "inputs": [],
      "name": "iterateRequests",
      "outputs": [
        {
          "internalType": "uint256[]",
          "name": "ids",
          "type": "uint256[]"
        },
        {
          "internalType": "address[]",
          "name": "studentAddresses",
          "type": "address[]"
        },
        {
          "internalType": "uint256[]",
          "name": "timestamps",
          "type": "uint256[]"
        },
        {
          "internalType": "uint256[]",
          "name": "amounts",
          "type": "uint256[]"
        },
        {
          "internalType": "bool[]",
          "name": "activeStatuses",
          "type": "bool[]"
        }
      ],
      "stateMutability": "view",
      "type": "function",
      "constant": true
    },
    {
      "inputs": [
        {
          "internalType": "bytes32",
          "name": "_transactionId",
          "type": "bytes32"
        }
      ],
      "name": "getTransferDetails",
      "outputs": [
        {
          "internalType": "address",
          "name": "recipient",
          "type": "address"
        },
        {
          "internalType": "uint256",
          "name": "amount",
          "type": "uint256"
        },
        {
          "internalType": "uint256",
          "name": "unlockTime",
          "type": "uint256"
        },
        {
          "internalType": "uint256",
          "name": "status",
          "type": "uint256"
        }
      ],
      "stateMutability": "view",
      "type": "function",
      "constant": true
    },
    {
      "inputs": [
        {
          "internalType": "uint8",
          "name": "_status",
          "type": "uint8"
        }
      ],
      "name": "getTransfersByStatus",
      "outputs": [
        {
          "internalType": "bytes32[]",
          "name": "",
          "type": "bytes32[]"
        }
      ],
      "stateMutability": "view",
      "type": "function",
      "constant": true
    },
    {
      "inputs": [
        {
          "internalType": "address",
          "name": "_recipient",
          "type": "address"
        }
      ],
      "name": "getTransfersByRecipient",
      "outputs": [
        {
          "internalType": "bytes32[]",
          "name": "",
          "type": "bytes32[]"
        }
      ],
      "stateMutability": "view",
      "type": "function",
      "constant": true
    },
    {
      "inputs": [
        {
          "internalType": "uint8",
          "name": "_status",
          "type": "uint8"
        },
        {
          "internalType": "address",
          "name": "_recipient",
          "type": "address"
        }
      ],
      "name": "getTransfersByStatusAndRecipient",
      "outputs": [
        {
          "internalType": "bytes32[]",
          "name": "",
          "type": "bytes32[]"
        }
      ],
      "stateMutability": "view",
      "type": "function",
      "constant": true
    },
    {
      "inputs": [
        {
          "internalType": "uint8",
          "name": "_status",
          "type": "uint8"
        },
        {
          "internalType": "uint256",
          "name": "startIndex",
          "type": "uint256"
        },
        {
          "internalType": "uint256",
          "name": "endIndex",
          "type": "uint256"
        }
      ],
      "name": "getTransfersByStatusPaginated",
      "outputs": [
        {
          "internalType": "bytes32[]",
          "name": "",
          "type": "bytes32[]"
        }
      ],
      "stateMutability": "view",
      "type": "function",
      "constant": true
    }
  ],
  "bytecode": "0x608060405234801561001057600080fd5b50336000806101000a81548173ffffffffffffffffffffffffffffffffffffffff021916908373ffffffffffffffffffffffffffffffffffffffff1602179055506142d3806100606000396000f3fe6080604052600436106101855760003560e01c80637ecebe00116100d1578063bb73a7841161008a578063d3e50a1411610064578063d3e50a14146105d5578063e1cf678d14610612578063f2270d721461062e578063f3f080151461066b5761018c565b8063bb73a78414610544578063c1a287e214610581578063c4d252f5146105ac5761018c565b80637ecebe00146104095780638796ba8c146104465780638da5cb5b1461048357806392a05087146104ae578063973a814e146104ee5780639f81aed7146105195761018c565b8063278ffb8d1161013e578063553b3bfd11610118578063553b3bfd14610377578063633aedec146103935780636c9230db146103af5780637a13ba36146103da5761018c565b8063278ffb8d146102f45780633015394c146103235780634125ff901461034c5761018c565b80630a0852b4146101915780630cb6aaf1146101bc5780630da82690146101f9578063183c5806146102365780631fe4ce3114610277578063228250c9146102b45761018c565b3661018c57005b600080fd5b34801561019d57600080fd5b506101a6610694565b6040516101b39190613c26565b60405180910390f35b3480156101c857600080fd5b506101e360048036038101906101de91906131e9565b6106a8565b6040516101f09190613a0b565b60405180910390f35b34801561020557600080fd5b50610220600480360381019061021b9190613212565b6106cc565b60405161022d91906138fd565b60405180910390f35b34801561024257600080fd5b5061025d600480360381019061025891906131e9565b6109aa565b60405161026e959493929190613c86565b60405180910390f35b34801561028357600080fd5b5061029e6004803603810190610299919061323b565b610a0d565b6040516102ab91906138fd565b60405180910390f35b3480156102c057600080fd5b506102db60048036038101906102d69190613121565b610dcc565b6040516102eb94939291906138b8565b60405180910390f35b34801561030057600080fd5b50610309610e29565b60405161031a959493929190613995565b60405180910390f35b34801561032f57600080fd5b5061034a600480360381019061034591906131e9565b611339565b005b34801561035857600080fd5b506103616114d3565b60405161036e9190613c26565b60405180910390f35b610391600480360381019061038c91906131ad565b6114da565b005b6103ad60048036038101906103a8919061314a565b611855565b005b3480156103bb57600080fd5b506103c4611c90565b6040516103d19190613c26565b60405180910390f35b3480156103e657600080fd5b506103ef611c98565b60405161040095949392919061391f565b60405180910390f35b34801561041557600080fd5b50610430600480360381019061042b9190613046565b612149565b60405161043d9190613c26565b60405180910390f35b34801561045257600080fd5b5061046d600480360381019061046891906131e9565b612161565b60405161047a9190613c26565b60405180910390f35b34801561048f57600080fd5b50610498612185565b6040516104a59190613821565b60405180910390f35b3480156104ba57600080fd5b506104d560048036038101906104d09190613121565b6121a9565b6040516104e59493929190613873565b60405180910390f35b3480156104fa57600080fd5b5061050361221d565b6040516105109190613c26565b60405180910390f35b34801561052557600080fd5b5061052e612223565b60405161053b9190613c26565b60405180910390f35b34801561055057600080fd5b5061056b60048036038101906105669190613277565b612228565b60405161057891906138fd565b60405180910390f35b34801561058d57600080fd5b506105966125ae565b6040516105a39190613c26565b60405180910390f35b3480156105b857600080fd5b506105d360048036038101906105ce9190613121565b6125b4565b005b3480156105e157600080fd5b506105fc60048036038101906105f791906130be565b612748565b6040516106099190613a0b565b60405180910390f35b61062c6004803603810190610627919061306f565b612781565b005b34801561063a57600080fd5b5061065560048036038101906106509190613046565b612a56565b60405161066291906138fd565b60405180910390f35b34801561067757600080fd5b50610692600480360381019061068d919061306f565b612d24565b005b60006064426106a39190613e3b565b905090565b600681815481106106b857600080fd5b906000526020600020016000915090505481565b60606000805b600680549050811015610776578360ff166004600060068481548110610721577f4e487b7100000000000000000000000000000000000000000000000000000000600052603260045260246000fd5b9060005260206000200154815260200190815260200160002060030160009054906101000a900460ff1660ff16141561076357818061075f90613f36565b9250505b808061076e90613f36565b9150506106d2565b5060008114156107f857600067ffffffffffffffff8111156107c1577f4e487b7100000000000000000000000000000000000000000000000000000000600052604160045260246000fd5b6040519080825280602002602001820160405280156107ef5781602001602082028036833780820191505090505b509150506109a5565b60008167ffffffffffffffff81111561083a577f4e487b7100000000000000000000000000000000000000000000000000000000600052604160045260246000fd5b6040519080825280602002602001820160405280156108685781602001602082028036833780820191505090505b5090506000805b60068054905081101561099d578560ff1660046000600684815481106108be577f4e487b7100000000000000000000000000000000000000000000000000000000600052603260045260246000fd5b9060005260206000200154815260200190815260200160002060030160009054906101000a900460ff1660ff16141561098a576006818154811061092b577f4e487b7100000000000000000000000000000000000000000000000000000000600052603260045260246000fd5b906000526020600020015483838151811061096f577f4e487b7100000000000000000000000000000000000000000000000000000000600052603260045260246000fd5b602002602001018181525050818061098690613f36565b9250505b808061099590613f36565b91505061086f565b508193505050505b919050565b60026020528060005260406000206000915090508060000154908060010160009054906101000a900473ffffffffffffffffffffffffffffffffffffffff16908060020154908060030154908060040160009054906101000a900460ff16905085565b60606000805b600680549050811015610b68578460ff166004600060068481548110610a62577f4e487b7100000000000000000000000000000000000000000000000000000000600052603260045260246000fd5b9060005260206000200154815260200190815260200160002060030160009054906101000a900460ff1660ff16148015610b4157508373ffffffffffffffffffffffffffffffffffffffff166004600060068481548110610aec577f4e487b7100000000000000000000000000000000000000000000000000000000600052603260045260246000fd5b9060005260206000200154815260200190815260200160002060000160009054906101000a900473ffffffffffffffffffffffffffffffffffffffff1673ffffffffffffffffffffffffffffffffffffffff16145b15610b55578180610b5190613f36565b9250505b8080610b6090613f36565b915050610a13565b5060008167ffffffffffffffff811115610bab577f4e487b7100000000000000000000000000000000000000000000000000000000600052604160045260246000fd5b604051908082528060200260200182016040528015610bd95781602001602082028036833780820191505090505b5090506000805b600680549050811015610dbf578660ff166004600060068481548110610c2f577f4e487b7100000000000000000000000000000000000000000000000000000000600052603260045260246000fd5b9060005260206000200154815260200190815260200160002060030160009054906101000a900460ff1660ff16148015610d0e57508573ffffffffffffffffffffffffffffffffffffffff166004600060068481548110610cb9577f4e487b7100000000000000000000000000000000000000000000000000000000600052603260045260246000fd5b9060005260206000200154815260200190815260200160002060000160009054906101000a900473ffffffffffffffffffffffffffffffffffffffff1673ffffffffffffffffffffffffffffffffffffffff16145b15610dac5760068181548110610d4d577f4e487b7100000000000000000000000000000000000000000000000000000000600052603260045260246000fd5b9060005260206000200154838381518110610d91577f4e487b7100000000000000000000000000000000000000000000000000000000600052603260045260246000fd5b6020026020010181815250508180610da890613f36565b9250505b8080610db790613f36565b915050610be0565b5081935050505092915050565b60046020528060005260406000206000915090508060000160009054906101000a900473ffffffffffffffffffffffffffffffffffffffff16908060010154908060020154908060030160009054906101000a900460ff16905084565b6060806060806060600060038054905090508067ffffffffffffffff811115610e7b577f4e487b7100000000000000000000000000000000000000000000000000000000600052604160045260246000fd5b604051908082528060200260200182016040528015610ea95781602001602082028036833780820191505090505b5095508067ffffffffffffffff811115610eec577f4e487b7100000000000000000000000000000000000000000000000000000000600052604160045260246000fd5b604051908082528060200260200182016040528015610f1a5781602001602082028036833780820191505090505b5094508067ffffffffffffffff811115610f5d577f4e487b7100000000000000000000000000000000000000000000000000000000600052604160045260246000fd5b604051908082528060200260200182016040528015610f8b5781602001602082028036833780820191505090505b5093508067ffffffffffffffff811115610fce577f4e487b7100000000000000000000000000000000000000000000000000000000600052604160045260246000fd5b604051908082528060200260200182016040528015610ffc5781602001602082028036833780820191505090505b5092508067ffffffffffffffff81111561103f577f4e487b7100000000000000000000000000000000000000000000000000000000600052604160045260246000fd5b60405190808252806020026020018201604052801561106d5781602001602082028036833780820191505090505b50915060005b81811015611330576000600382815481106110b7577f4e487b7100000000000000000000000000000000000000000000000000000000600052603260045260246000fd5b906000526020600020015490506000600260008381526020019081526020016000206040518060a0016040529081600082015481526020016001820160009054906101000a900473ffffffffffffffffffffffffffffffffffffffff1673ffffffffffffffffffffffffffffffffffffffff1673ffffffffffffffffffffffffffffffffffffffff16815260200160028201548152602001600382015481526020016004820160009054906101000a900460ff161515151581525050905080600001518984815181106111b3577f4e487b7100000000000000000000000000000000000000000000000000000000600052603260045260246000fd5b60200260200101818152505080602001518884815181106111fd577f4e487b7100000000000000000000000000000000000000000000000000000000600052603260045260246000fd5b602002602001019073ffffffffffffffffffffffffffffffffffffffff16908173ffffffffffffffffffffffffffffffffffffffff16815250508060400151878481518110611275577f4e487b7100000000000000000000000000000000000000000000000000000000600052603260045260246000fd5b60200260200101818152505080606001518684815181106112bf577f4e487b7100000000000000000000000000000000000000000000000000000000600052603260045260246000fd5b6020026020010181815250508060800151858481518110611309577f4e487b7100000000000000000000000000000000000000000000000000000000600052603260045260246000fd5b6020026020010190151590811515815250505050808061132890613f36565b915050611073565b50509091929394565b6000600260008381526020019081526020016000209050600081600001541415611398576040517f08c379a000000000000000000000000000000000000000000000000000000000815260040161138f90613a46565b60405180910390fd5b8060010160009054906101000a900473ffffffffffffffffffffffffffffffffffffffff1673ffffffffffffffffffffffffffffffffffffffff163373ffffffffffffffffffffffffffffffffffffffff161461142a576040517f08c379a000000000000000000000000000000000000000000000000000000000815260040161142190613b66565b60405180910390fd5b8060040160009054906101000a900460ff1661147b576040517f08c379a000000000000000000000000000000000000000000000000000000000815260040161147290613a66565b60405180910390fd5b60008160040160006101000a81548160ff0219169083151502179055507f6187bf55f2675dbecee951f81c92ecac87f54ed5bf888d31b09e634749b848ef826040516114c79190613c26565b60405180910390a15050565b620d2f0081565b60016004600084815260200190815260200160002060030160009054906101000a900460ff1660ff161461154557816040517f0995c9d500000000000000000000000000000000000000000000000000000000815260040161153c9190613a0b565b60405180910390fd5b60046000838152602001908152602001600020600101548110156115b8578060046000848152602001908152602001600020600101546040517f035fce5b0000000000000000000000000000000000000000000000000000000081526004016115af929190613cd9565b60405180910390fd5b6103e860046000848152602001908152602001600020600101546115dc9190613e3b565b8111156116755760036004600084815260200190815260200160002060030160006101000a81548160ff021916908360ff160217905550806103e860046000858152602001908152602001600020600101546116389190613e3b565b6040517f92ae26d100000000000000000000000000000000000000000000000000000000815260040161166c929190613cd9565b60405180910390fd5b60006004600084815260200190815260200160002060000160009054906101000a900473ffffffffffffffffffffffffffffffffffffffff1673ffffffffffffffffffffffffffffffffffffffff1660046000858152602001908152602001600020600201546040516116e79061380c565b60006040518083038185875af1925050503d8060008114611724576040519150601f19603f3d011682016040523d82523d6000602084013e611729565b606091505b505090508061176d576040517f08c379a000000000000000000000000000000000000000000000000000000000815260040161176490613a86565b60405180910390fd5b60026004600085815260200190815260200160002060030160006101000a81548160ff021916908360ff1602179055506004600084815260200190815260200160002060000160009054906101000a900473ffffffffffffffffffffffffffffffffffffffff1673ffffffffffffffffffffffffffffffffffffffff16837f12c1a2c49028795b0ce8a17c5a4476dd1224c3ab775a1eed866d7ff04de03e2160046000878152602001908152602001600020600101546004600088815260200190815260200160002060020154604051611848929190613cd9565b60405180910390a3505050565b60016004600086815260200190815260200160002060030160009054906101000a900460ff1660ff16146118c057836040517f0995c9d50000000000000000000000000000000000000000000000000000000081526004016118b79190613a0b565b60405180910390fd5b600a426118cd9190613e3b565b8210806118e75750620d2f00426118e49190613e3b565b82115b1561192b5742826040517f1a9616c2000000000000000000000000000000000000000000000000000000008152600401611922929190613cd9565b60405180910390fd5b60006004600086815260200190815260200160002060020154905080821115611a6f576000818361195c9190613e91565b9050803410156119a1576040517f08c379a000000000000000000000000000000000000000000000000000000000815260040161199890613be6565b60405180910390fd5b600081346119af9190613e91565b90506000811115611a685760003373ffffffffffffffffffffffffffffffffffffffff16826040516119e09061380c565b60006040518083038185875af1925050503d8060008114611a1d576040519150601f19603f3d011682016040523d82523d6000602084013e611a22565b606091505b5050905080611a66576040517f08c379a0000000000000000000000000000000000000000000000000000000008152600401611a5d90613b46565b60405180910390fd5b505b5050611bc2565b80821015611b7d5760008282611a859190613e91565b905080471015611aca576040517f08c379a0000000000000000000000000000000000000000000000000000000008152600401611ac190613c06565b60405180910390fd5b60003373ffffffffffffffffffffffffffffffffffffffff1682604051611af09061380c565b60006040518083038185875af1925050503d8060008114611b2d576040519150601f19603f3d011682016040523d82523d6000602084013e611b32565b606091505b5050905080611b76576040517f08c379a0000000000000000000000000000000000000000000000000000000008152600401611b6d90613aa6565b60405180910390fd5b5050611bc1565b60003414611bc0576040517f08c379a0000000000000000000000000000000000000000000000000000000008152600401611bb790613a26565b60405180910390fd5b5b5b836004600087815260200190815260200160002060000160006101000a81548173ffffffffffffffffffffffffffffffffffffffff021916908373ffffffffffffffffffffffffffffffffffffffff160217905550826004600087815260200190815260200160002060010181905550816004600087815260200190815260200160002060020181905550847f2dce18e096e8dd0e5fdaa0af57c71e1bd13e627d3ca5eeb9732f2d27235b59df858585604051611c819392919061383c565b60405180910390a25050505050565b600042905090565b6060806060806060600060068054905090508067ffffffffffffffff811115611cea577f4e487b7100000000000000000000000000000000000000000000000000000000600052604160045260246000fd5b604051908082528060200260200182016040528015611d185781602001602082028036833780820191505090505b5094508067ffffffffffffffff811115611d5b577f4e487b7100000000000000000000000000000000000000000000000000000000600052604160045260246000fd5b604051908082528060200260200182016040528015611d895781602001602082028036833780820191505090505b5093508067ffffffffffffffff811115611dcc577f4e487b7100000000000000000000000000000000000000000000000000000000600052604160045260246000fd5b604051908082528060200260200182016040528015611dfa5781602001602082028036833780820191505090505b5092508067ffffffffffffffff811115611e3d577f4e487b7100000000000000000000000000000000000000000000000000000000600052604160045260246000fd5b604051908082528060200260200182016040528015611e6b5781602001602082028036833780820191505090505b50915060005b818110156120de57600060068281548110611eb5577f4e487b7100000000000000000000000000000000000000000000000000000000600052603260045260246000fd5b906000526020600020015490506000600460008381526020019081526020016000206040518060800160405290816000820160009054906101000a900473ffffffffffffffffffffffffffffffffffffffff1673ffffffffffffffffffffffffffffffffffffffff1673ffffffffffffffffffffffffffffffffffffffff16815260200160018201548152602001600282015481526020016003820160009054906101000a900460ff1660ff1660ff168152505090508060000151888481518110611fa9577f4e487b7100000000000000000000000000000000000000000000000000000000600052603260045260246000fd5b602002602001019073ffffffffffffffffffffffffffffffffffffffff16908173ffffffffffffffffffffffffffffffffffffffff16815250508060400151878481518110612021577f4e487b7100000000000000000000000000000000000000000000000000000000600052603260045260246000fd5b602002602001018181525050806020015186848151811061206b577f4e487b7100000000000000000000000000000000000000000000000000000000600052603260045260246000fd5b60200260200101818152505080606001518584815181106120b5577f4e487b7100000000000000000000000000000000000000000000000000000000600052603260045260246000fd5b602002602001019060ff16908160ff1681525050505080806120d690613f36565b915050611e71565b506006858585858480548060200260200160405190810160405280929190818152602001828054801561213057602002820191906000526020600020905b81548152602001906001019080831161211c575b5050505050945095509550955095509550509091929394565b60056020528060005260406000206000915090505481565b6003818154811061217157600080fd5b906000526020600020016000915090505481565b60008054906101000a900473ffffffffffffffffffffffffffffffffffffffff1681565b60008060008060006004600087815260200190815260200160002090508060000160009054906101000a900473ffffffffffffffffffffffffffffffffffffffff16816002015482600101548360030160009054906101000a900460ff168060ff1690509450945094509450509193509193565b60015481565b600a81565b606082821161226c576040517f08c379a000000000000000000000000000000000000000000000000000000000815260040161226390613ae6565b60405180910390fd5b6006805490508211156122b4576040517f08c379a00000000000000000000000000000000000000000000000000000000081526004016122ab90613bc6565b60405180910390fd5b6000808490505b83811080156122ce575060068054905081105b1561236a578560ff166004600060068481548110612315577f4e487b7100000000000000000000000000000000000000000000000000000000600052603260045260246000fd5b9060005260206000200154815260200190815260200160002060030160009054906101000a900460ff1660ff16141561235757818061235390613f36565b9250505b808061236290613f36565b9150506122bb565b5060008114156123ec57600067ffffffffffffffff8111156123b5577f4e487b7100000000000000000000000000000000000000000000000000000000600052604160045260246000fd5b6040519080825280602002602001820160405280156123e35781602001602082028036833780820191505090505b509150506125a7565b60008167ffffffffffffffff81111561242e577f4e487b7100000000000000000000000000000000000000000000000000000000600052604160045260246000fd5b60405190808252806020026020018201604052801561245c5781602001602082028036833780820191505090505b5090506000808690505b8581108015612479575060068054905081105b1561259f578760ff1660046000600684815481106124c0577f4e487b7100000000000000000000000000000000000000000000000000000000600052603260045260246000fd5b9060005260206000200154815260200190815260200160002060030160009054906101000a900460ff1660ff16141561258c576006818154811061252d577f4e487b7100000000000000000000000000000000000000000000000000000000600052603260045260246000fd5b9060005260206000200154838381518110612571577f4e487b7100000000000000000000000000000000000000000000000000000000600052603260045260246000fd5b602002602001018181525050818061258890613f36565b9250505b808061259790613f36565b915050612466565b508193505050505b9392505050565b6103e881565b60016004600083815260200190815260200160002060030160009054906101000a900460ff1660ff161461261f57806040517f0995c9d50000000000000000000000000000000000000000000000000000000081526004016126169190613a0b565b60405180910390fd5b60006004600083815260200190815260200160002060020154905060036004600084815260200190815260200160002060030160006101000a81548160ff021916908360ff16021790555060003373ffffffffffffffffffffffffffffffffffffffff16826040516126909061380c565b60006040518083038185875af1925050503d80600081146126cd576040519150601f19603f3d011682016040523d82523d6000602084013e6126d2565b606091505b5050905080612716576040517f08c379a000000000000000000000000000000000000000000000000000000000815260040161270d90613b46565b60405180910390fd5b827fe8d9861dbc9c663ed3accd261bbe2fe01e0d3d9e5f51fa38523b265c7757a93a60405160405180910390a2505050565b6000848484846040516020016127619493929190613873565b604051602081830303815290604052805190602001209050949350505050565b8034146127c3576040517f08c379a00000000000000000000000000000000000000000000000000000000081526004016127ba90613b26565b60405180910390fd5b6000600560003373ffffffffffffffffffffffffffffffffffffffff1673ffffffffffffffffffffffffffffffffffffffff168152602001908152602001600020600081548092919061281590613f36565b919050559050600061282985858585612748565b905060016004600083815260200190815260200160002060030160009054906101000a900460ff1660ff16141561289757806040517f995042be00000000000000000000000000000000000000000000000000000000815260040161288e9190613a0b565b60405180910390fd5b600a426128a49190613e3b565b8410806128be5750620d2f00426128bb9190613e3b565b84115b156129025742846040517f1a9616c20000000000000000000000000000000000000000000000000000000081526004016128f9929190613cd9565b60405180910390fd5b600060405180608001604052808773ffffffffffffffffffffffffffffffffffffffff168152602001868152602001858152602001600160ff168152509050806004600084815260200190815260200160002060008201518160000160006101000a81548173ffffffffffffffffffffffffffffffffffffffff021916908373ffffffffffffffffffffffffffffffffffffffff160217905550602082015181600101556040820151816002015560608201518160030160006101000a81548160ff021916908360ff16021790555090505060068290806001815401808255809150506001900390600052602060002001600090919091909150558573ffffffffffffffffffffffffffffffffffffffff16827f29829d31c3b36d4a4d8cba00b41f628ae184b474a5a3a12296efe0e31da83ddd8787604051612a46929190613cd9565b60405180910390a3505050505050565b60606000805b600680549050811015612b39578373ffffffffffffffffffffffffffffffffffffffff166004600060068481548110612abe577f4e487b7100000000000000000000000000000000000000000000000000000000600052603260045260246000fd5b9060005260206000200154815260200190815260200160002060000160009054906101000a900473ffffffffffffffffffffffffffffffffffffffff1673ffffffffffffffffffffffffffffffffffffffff161415612b26578180612b2290613f36565b9250505b8080612b3190613f36565b915050612a5c565b5060008167ffffffffffffffff811115612b7c577f4e487b7100000000000000000000000000000000000000000000000000000000600052604160045260246000fd5b604051908082528060200260200182016040528015612baa5781602001602082028036833780820191505090505b5090506000805b600680549050811015612d18578573ffffffffffffffffffffffffffffffffffffffff166004600060068481548110612c13577f4e487b7100000000000000000000000000000000000000000000000000000000600052603260045260246000fd5b9060005260206000200154815260200190815260200160002060000160009054906101000a900473ffffffffffffffffffffffffffffffffffffffff1673ffffffffffffffffffffffffffffffffffffffff161415612d055760068181548110612ca6577f4e487b7100000000000000000000000000000000000000000000000000000000600052603260045260246000fd5b9060005260206000200154838381518110612cea577f4e487b7100000000000000000000000000000000000000000000000000000000600052603260045260246000fd5b6020026020010181815250508180612d0190613f36565b9250505b8080612d1090613f36565b915050612bb1565b50819350505050919050565b600073ffffffffffffffffffffffffffffffffffffffff168373ffffffffffffffffffffffffffffffffffffffff161415612d94576040517f08c379a0000000000000000000000000000000000000000000000000000000008152600401612d8b90613ac6565b60405180910390fd5b60008211612dd7576040517f08c379a0000000000000000000000000000000000000000000000000000000008152600401612dce90613b06565b60405180910390fd5b68056bc75e2d63100000821115612e23576040517f08c379a0000000000000000000000000000000000000000000000000000000008152600401612e1a90613ba6565b60405180910390fd5b600a42612e309190613e3b565b8110158015612e4d5750620d2f0042612e499190613e3b565b8111155b612e8c576040517f08c379a0000000000000000000000000000000000000000000000000000000008152600401612e8390613b86565b60405180910390fd5b60016000815480929190612e9f90613f36565b91905055506040518060a0016040528060015481526020018473ffffffffffffffffffffffffffffffffffffffff168152602001828152602001838152602001600115158152506002600060015481526020019081526020016000206000820151816000015560208201518160010160006101000a81548173ffffffffffffffffffffffffffffffffffffffff021916908373ffffffffffffffffffffffffffffffffffffffff160217905550604082015181600201556060820151816003015560808201518160040160006101000a81548160ff021916908315150217905550905050600360015490806001815401808255809150506001900390600052602060002001600090919091909150557f1db3781f476c924e2c5b9f57e251bfbca1718c38e4b378f90bda83fe084afa9c600154848385604051612fe59493929190613c41565b60405180910390a1505050565b60008135905061300181614241565b92915050565b60008135905061301681614258565b92915050565b60008135905061302b8161426f565b92915050565b60008135905061304081614286565b92915050565b60006020828403121561305857600080fd5b600061306684828501612ff2565b91505092915050565b60008060006060848603121561308457600080fd5b600061309286828701612ff2565b93505060206130a38682870161301c565b92505060406130b48682870161301c565b9150509250925092565b600080600080608085870312156130d457600080fd5b60006130e287828801612ff2565b94505060206130f38782880161301c565b93505060406131048782880161301c565b92505060606131158782880161301c565b91505092959194509250565b60006020828403121561313357600080fd5b600061314184828501613007565b91505092915050565b6000806000806080858703121561316057600080fd5b600061316e87828801613007565b945050602061317f87828801612ff2565b93505060406131908782880161301c565b92505060606131a18782880161301c565b91505092959194509250565b600080604083850312156131c057600080fd5b60006131ce85828601613007565b92505060206131df8582860161301c565b9150509250929050565b6000602082840312156131fb57600080fd5b60006132098482850161301c565b91505092915050565b60006020828403121561322457600080fd5b600061323284828501613031565b91505092915050565b6000806040838503121561324e57600080fd5b600061325c85828601613031565b925050602061326d85828601612ff2565b9150509250929050565b60008060006060848603121561328c57600080fd5b600061329a86828701613031565b93505060206132ab8682870161301c565b92505060406132bc8682870161301c565b9150509250925092565b60006132d2838361334d565b60208301905092915050565b60006132ea8383613541565b60208301905092915050565b6000613302838361355f565b60208301905092915050565b600061331a83836137d0565b60208301905092915050565b600061333283836137ee565b60208301905092915050565b61334781613ed7565b82525050565b61335681613ec5565b82525050565b61336581613ec5565b82525050565b600061337682613d52565b6133808185613dca565b935061338b83613d02565b8060005b838110156133bc5781516133a388826132c6565b97506133ae83613d89565b92505060018101905061338f565b5085935050505092915050565b60006133d482613d5d565b6133de8185613ddb565b93506133e983613d12565b8060005b8381101561341a57815161340188826132de565b975061340c83613d96565b9250506001810190506133ed565b5085935050505092915050565b600061343282613d68565b61343c8185613dec565b935061344783613d22565b8060005b8381101561347857815161345f88826132f6565b975061346a83613da3565b92505060018101905061344b565b5085935050505092915050565b600061349082613d73565b61349a8185613dfd565b93506134a583613d32565b8060005b838110156134d65781516134bd888261330e565b97506134c883613db0565b9250506001810190506134a9565b5085935050505092915050565b60006134ee82613d7e565b6134f88185613e0e565b935061350383613d42565b8060005b8381101561353457815161351b8882613326565b975061352683613dbd565b925050600181019050613507565b5085935050505092915050565b61354a81613ee9565b82525050565b61355981613ee9565b82525050565b61356881613ef5565b82525050565b61357781613ef5565b82525050565b600061358a602083613e2a565b915061359582613fae565b602082019050919050565b60006135ad601183613e2a565b91506135b882613fd7565b602082019050919050565b60006135d0601883613e2a565b91506135db82614000565b602082019050919050565b60006135f3600f83613e2a565b91506135fe82614029565b602082019050919050565b6000613616600f83613e2a565b915061362182614052565b602082019050919050565b6000613639601783613e2a565b91506136448261407b565b602082019050919050565b600061365c600f83613e2a565b9150613667826140a4565b602082019050919050565b600061367f601d83613e2a565b915061368a826140cd565b602082019050919050565b60006136a2601983613e2a565b91506136ad826140f6565b602082019050919050565b60006136c5600d83613e2a565b91506136d08261411f565b602082019050919050565b60006136e8601583613e2a565b91506136f382614148565b602082019050919050565b600061370b601e83613e2a565b915061371682614171565b602082019050919050565b600061372e601c83613e2a565b91506137398261419a565b602082019050919050565b6000613751600083613e1f565b915061375c826141c3565b600082019050919050565b6000613774601383613e2a565b915061377f826141c6565b602082019050919050565b6000613797602083613e2a565b91506137a2826141ef565b602082019050919050565b60006137ba601d83613e2a565b91506137c582614218565b602082019050919050565b6137d981613f1f565b82525050565b6137e881613f1f565b82525050565b6137f781613f29565b82525050565b61380681613f29565b82525050565b600061381782613744565b9150819050919050565b6000602082019050613836600083018461333e565b92915050565b6000606082019050613851600083018661335c565b61385e60208301856137df565b61386b60408301846137df565b949350505050565b6000608082019050613888600083018761335c565b61389560208301866137df565b6138a260408301856137df565b6138af60608301846137df565b95945050505050565b60006080820190506138cd600083018761335c565b6138da60208301866137df565b6138e760408301856137df565b6138f460608301846137fd565b95945050505050565b600060208201905081810360008301526139178184613427565b905092915050565b600060a08201905081810360008301526139398188613427565b9050818103602083015261394d818761336b565b905081810360408301526139618186613485565b905081810360608301526139758185613485565b9050818103608083015261398981846134e3565b90509695505050505050565b600060a08201905081810360008301526139af8188613485565b905081810360208301526139c3818761336b565b905081810360408301526139d78186613485565b905081810360608301526139eb8185613485565b905081810360808301526139ff81846133c9565b90509695505050505050565b6000602082019050613a20600083018461356e565b92915050565b60006020820190508181036000830152613a3f8161357d565b9050919050565b60006020820190508181036000830152613a5f816135a0565b9050919050565b60006020820190508181036000830152613a7f816135c3565b9050919050565b60006020820190508181036000830152613a9f816135e6565b9050919050565b60006020820190508181036000830152613abf81613609565b9050919050565b60006020820190508181036000830152613adf8161362c565b9050919050565b60006020820190508181036000830152613aff8161364f565b9050919050565b60006020820190508181036000830152613b1f81613672565b9050919050565b60006020820190508181036000830152613b3f81613695565b9050919050565b60006020820190508181036000830152613b5f816136b8565b9050919050565b60006020820190508181036000830152613b7f816136db565b9050919050565b60006020820190508181036000830152613b9f816136fe565b9050919050565b60006020820190508181036000830152613bbf81613721565b9050919050565b60006020820190508181036000830152613bdf81613767565b9050919050565b60006020820190508181036000830152613bff8161378a565b9050919050565b60006020820190508181036000830152613c1f816137ad565b9050919050565b6000602082019050613c3b60008301846137df565b92915050565b6000608082019050613c5660008301876137df565b613c63602083018661335c565b613c7060408301856137df565b613c7d60608301846137df565b95945050505050565b600060a082019050613c9b60008301886137df565b613ca8602083018761335c565b613cb560408301866137df565b613cc260608301856137df565b613ccf6080830184613550565b9695505050505050565b6000604082019050613cee60008301856137df565b613cfb60208301846137df565b9392505050565b6000819050602082019050919050565b6000819050602082019050919050565b6000819050602082019050919050565b6000819050602082019050919050565b6000819050602082019050919050565b600081519050919050565b600081519050919050565b600081519050919050565b600081519050919050565b600081519050919050565b6000602082019050919050565b6000602082019050919050565b6000602082019050919050565b6000602082019050919050565b6000602082019050919050565b600082825260208201905092915050565b600082825260208201905092915050565b600082825260208201905092915050565b600082825260208201905092915050565b600082825260208201905092915050565b600081905092915050565b600082825260208201905092915050565b6000613e4682613f1f565b9150613e5183613f1f565b9250827fffffffffffffffffffffffffffffffffffffffffffffffffffffffffffffffff03821115613e8657613e85613f7f565b5b828201905092915050565b6000613e9c82613f1f565b9150613ea783613f1f565b925082821015613eba57613eb9613f7f565b5b828203905092915050565b6000613ed082613eff565b9050919050565b6000613ee282613eff565b9050919050565b60008115159050919050565b6000819050919050565b600073ffffffffffffffffffffffffffffffffffffffff82169050919050565b6000819050919050565b600060ff82169050919050565b6000613f4182613f1f565b91507fffffffffffffffffffffffffffffffffffffffffffffffffffffffffffffffff821415613f7457613f73613f7f565b5b600182019050919050565b7f4e487b7100000000000000000000000000000000000000000000000000000000600052601160045260246000fd5b7f4e6f206164646974696f6e616c204554482073686f756c642062652073656e74600082015250565b7f52657175657374206e6f7420666f756e64000000000000000000000000000000600082015250565b7f5265717565737420616c72656164792063616e63656c65640000000000000000600082015250565b7f5472616e73666572206661696c65640000000000000000000000000000000000600082015250565b7f5769746864726177206661696c65640000000000000000000000000000000000600082015250565b7f496e76616c69642073747564656e742061646472657373000000000000000000600082015250565b7f496e76616c696420696e64696365730000000000000000000000000000000000600082015250565b7f416d6f756e74206d7573742062652067726561746572207468616e2030000000600082015250565b7f496e636f72726563742045544820616d6f756e742073656e7400000000000000600082015250565b7f526566756e64206661696c656400000000000000000000000000000000000000600082015250565b7f4e6f74207468652072657175657374206f776e65720000000000000000000000600082015250565b7f5375676765737465642074696d65206973206f7574206f662072616e67650000600082015250565b7f416d6f756e742065786365656473206d6178696d756d206c696d697400000000600082015250565b50565b7f496e646578206f7574206f6620626f756e647300000000000000000000000000600082015250565b7f4e6f7420656e6f756768204554482073656e7420666f7220696e637265617365600082015250565b7f496e73756666696369656e7420636f6e74726163742062616c616e6365000000600082015250565b61424a81613ec5565b811461425557600080fd5b50565b61426181613ef5565b811461426c57600080fd5b50565b61427881613f1f565b811461428357600080fd5b50565b61428f81613f29565b811461429a57600080fd5b5056fea26469706673582212208fa74f4552f30f8b060f30b9255e2b80a5a523b2e0d3eb407638c709a50eb22164736f6c63430008040033",
  "immutableReferences": {},
  "source": "// SPDX-License-Identifier: MIT\r\npragma solidity ^0.8.4;\r\n\r\n//For Timelock \r\ncontract TimeLock {\r\n    error NotOwnerError();\r\n    error AlreadyQueuedError(bytes32 txId);\r\n    error TimestampNotInRangeError(uint256 blockTimestamp, uint256 timestamp);\r\n    error NotQueuedError(bytes32 txId);\r\n    error TimestampNotPassedError(uint256 blockTimestmap, uint256 timestamp);\r\n    error TimestampExpiredError(uint256 blockTimestamp, uint256 expiresAt);\r\n    error TxFailedError();\r\n\r\n    event Queue(\r\n        bytes32 indexed txId,\r\n        address indexed target,\r\n        uint256 timestamp,\r\n        uint256 amount\r\n    );\r\n    event Execute(\r\n        bytes32 indexed txId,\r\n        address indexed target,\r\n        uint256 timestamp,\r\n        uint256 amount\r\n    );\r\n    event Cancel(bytes32 indexed txId);\r\n\r\n    event TransactionModified(\r\n        bytes32 indexed txId,\r\n        address newTarget,\r\n        uint256 newTimestamp,\r\n        uint256 amount\r\n    );\r\n\r\n    event RequestSent(\r\n        uint256 requestNo,\r\n        address requestor,\r\n        uint256 time,\r\n        uint amount\r\n    );\r\n\r\n    // Event to emit when a student request is canceled\r\n    event RequestCanceled(uint256 requestId);\r\n\r\n    uint256 public constant MIN_DELAY = 10; // seconds\r\n    //uint256 public constant MAX_DELAY = 1000; // seconds\r\n    uint256 public constant MAX_DELAY = 864000; // seconds\r\n    uint256 public constant GRACE_PERIOD = 1000; // seconds\r\n\r\n    address payable public owner;\r\n\r\n    //address payable public sender;\r\n\r\n    struct Transaction {\r\n        address target;\r\n        uint256 timestamp;\r\n        uint256 amount;\r\n        uint8 status;\r\n    }\r\n    //Status:\r\n    //1 = Queueing\r\n    //2 = Executed\r\n    //3 = Cancelled\r\n\r\n    // New Struct for Student Request\r\n    struct StudentRequest {\r\n        uint256 id;           // Unique numeric identifier for each request\r\n        address studentAddress;\r\n        uint256 timestamp;\r\n        uint256 amount;\r\n        bool active;\r\n    }\r\n\r\n    //For Student Purpose\r\n    uint256 public requestCounter;  // Counter for generating unique IDs\r\n    mapping(uint256 => StudentRequest) public studentRequests;  // Mapping to store requests by ID\r\n    uint256[] public requestIds;    // Array to store request IDs\r\n\r\n    //For Parent Purpose\r\n    // tx id => queued\r\n    mapping(bytes32 => Transaction) public queued;\r\n    mapping(address => uint256) public nonces;\r\n    bytes32[] public keys;\r\n\r\n    //mapping(bytes32 => bool) public queued;\r\n\r\n\r\n    constructor() {\r\n        owner = payable(msg.sender);\r\n        //owner = msg.sender;\r\n    }\r\n\r\n    modifier onlyOwner() {\r\n        if (msg.sender != owner) {\r\n            revert NotOwnerError();\r\n        }\r\n        _;\r\n    }\r\n\r\n    receive() external payable {}\r\n\r\n    //For Parent Purpose\r\n\r\n    function getTxId(\r\n        address _target,\r\n        uint256 _timestamp,\r\n        uint256 _amount,\r\n        uint256 nonce\r\n    ) public pure returns (bytes32) {\r\n        return keccak256(abi.encode(_target, _timestamp, _amount, nonce));\r\n    }\r\n\r\n    \r\n    function queue(\r\n        address _target,\r\n        uint256 _timestamp,\r\n        uint256 _amount\r\n    ) external payable {\r\n        require(msg.value == _amount, \"Incorrect ETH amount sent\");\r\n        uint256 nonce = nonces[msg.sender]++;\r\n        bytes32 txId = getTxId(_target, _timestamp, _amount, nonce);\r\n        if (queued[txId].status == 1) {\r\n            revert AlreadyQueuedError(txId);\r\n        }\r\n        // ---|------------|---------------|-------\r\n        //  block    block + min     block + max\r\n        if (\r\n            _timestamp < block.timestamp + MIN_DELAY || \r\n            _timestamp > block.timestamp + MAX_DELAY\r\n        ) {\r\n            revert TimestampNotInRangeError(block.timestamp, _timestamp);\r\n        }\r\n\r\n        Transaction memory newTransaction = Transaction({\r\n            target: _target,\r\n            timestamp: _timestamp,\r\n            amount: _amount,\r\n            status: 1\r\n        });\r\n\r\n        queued[txId] = newTransaction;\r\n\r\n        //queued[txId].queued = true;\r\n        keys.push(txId);\r\n\r\n        emit Queue(txId, _target, _timestamp, _amount);\r\n    }\r\n\r\n    \r\n    function modify(\r\n        bytes32 _txId,\r\n        address _newTarget,\r\n        uint256 _newTimestamp,\r\n        uint256 _newAmount\r\n    ) external payable {\r\n        if (queued[_txId].status != 1) {\r\n            revert NotQueuedError(_txId);\r\n        }\r\n\r\n        if (\r\n            _newTimestamp < block.timestamp + MIN_DELAY || \r\n            _newTimestamp > block.timestamp + MAX_DELAY\r\n        ) {\r\n            revert TimestampNotInRangeError(block.timestamp, _newTimestamp);\r\n        }\r\n\r\n         // Get the current amount\r\n        uint256 currentAmount = queued[_txId].amount;\r\n\r\n        if (_newAmount > currentAmount) {\r\n            // Transfer more money to the contract\r\n            // If the new amount is greater, check if enough ETH was sent\r\n            uint256 extraAmountRequired = _newAmount - currentAmount;\r\n            require(msg.value >= extraAmountRequired, \"Not enough ETH sent for increase\");\r\n\r\n            // Any extra ETH sent above the required amount will be refunded\r\n            uint256 refund = msg.value - extraAmountRequired;\r\n            if (refund > 0) {\r\n                (bool refundSuccess, ) = payable(msg.sender).call{value: refund}(\"\");\r\n                require(refundSuccess, \"Refund failed\");\r\n            }\r\n        } else if (_newAmount < currentAmount) {\r\n        // Withdraw the excess amount back to the owner\r\n            uint256 amountToWithdraw = currentAmount - _newAmount;\r\n\r\n            // Check if the contract has enough balance to withdraw\r\n            require(address(this).balance >= amountToWithdraw, \"Insufficient contract balance\");\r\n\r\n            (bool success, ) = payable(msg.sender).call{value: amountToWithdraw}(\"\");\r\n            //(bool success, ) = owner.call{value: amountToWithdraw}(\"\");\r\n            require(success, \"Withdraw failed\");\r\n        } else {\r\n        // If amounts are equal, ensure that no additional value is sent\r\n            require(msg.value == 0, \"No additional ETH should be sent\");\r\n        }\r\n\r\n        queued[_txId].target = _newTarget;\r\n        queued[_txId].timestamp = _newTimestamp;\r\n        queued[_txId].amount = _newAmount;\r\n\r\n        emit TransactionModified(_txId, _newTarget, _newTimestamp, _newAmount);\r\n    }\r\n\r\n\r\n    function execute(\r\n        bytes32 _txId,\r\n        uint256 _latestTime\r\n    ) external payable {\r\n        if (queued[_txId].status != 1) {\r\n            revert NotQueuedError(_txId);\r\n        }\r\n        // ----|-------------------|-------\r\n        //  timestamp    timestamp + grace period\r\n        if (_latestTime < queued[_txId].timestamp) {\r\n            revert TimestampNotPassedError(_latestTime, queued[_txId].timestamp);\r\n        }\r\n        if (_latestTime > queued[_txId].timestamp + GRACE_PERIOD) {\r\n            queued[_txId].status = 3;\r\n            revert TimestampExpiredError(\r\n                _latestTime, queued[_txId].timestamp + GRACE_PERIOD\r\n            );\r\n        }        \r\n\r\n        // Transfer the amount to the recipient\r\n        (bool success, ) = queued[_txId].target.call{value: queued[_txId].amount}(\"\");\r\n        require(success, \"Transfer failed\");\r\n\r\n        queued[_txId].status = 2;\r\n        \r\n        emit Execute(_txId, queued[_txId].target, queued[_txId].timestamp, queued[_txId].amount);\r\n    }\r\n\r\n    function cancel(bytes32 _txId) external {\r\n        if (queued[_txId].status != 1) {\r\n            revert NotQueuedError(_txId);\r\n        }\r\n\r\n        // Retrieve the amount to be refunded\r\n        uint256 amountToRefund = queued[_txId].amount;\r\n\r\n        queued[_txId].status = 3;\r\n\r\n        // Transfer the amount back to the owner\r\n        (bool success, ) = payable(msg.sender).call{value: amountToRefund}(\"\");\r\n        //(bool success, ) = owner.call{value: amountToRefund}(\"\");\r\n        require(success, \"Refund failed\");\r\n\r\n        emit Cancel(_txId);\r\n    }\r\n\r\n    //Temporary function\r\n    function getFutureTimestamp() external view returns (uint) {\r\n        return block.timestamp + 100;\r\n    }\r\n\r\n    function getCurrentTimestamp() external view returns (uint) {\r\n        return block.timestamp;\r\n    }\r\n\r\n    function iterateTransactions() public view returns (\r\n        bytes32[] memory _keys,\r\n        address[] memory targets,\r\n        uint256[] memory values,\r\n        uint256[] memory timestamps,\r\n        uint8[] memory queuedStatuses\r\n    ) {\r\n        uint256 length = keys.length;\r\n\r\n        // Create arrays to hold the transaction details\r\n        targets = new address[](length);\r\n        values = new uint256[](length);\r\n        timestamps = new uint256[](length);\r\n        queuedStatuses = new uint8[](length);\r\n\r\n        for (uint256 i = 0; i < length; i++) {\r\n            bytes32 key = keys[i];\r\n            Transaction memory txn = queued[key];\r\n\r\n            targets[i] = txn.target;\r\n            values[i] = txn.amount;\r\n            timestamps[i] = txn.timestamp;\r\n            queuedStatuses[i] = txn.status;\r\n        }\r\n\r\n        return (keys, targets, values, timestamps, queuedStatuses);\r\n    }   \r\n\r\n    //For Student\r\n    // Function to create a new student request\r\n    function createRequest(\r\n        address _studentAddress,\r\n        uint256 _amount,\r\n        uint256 _suggestedTime\r\n    ) public {\r\n        // Validate that the student address is not zero\r\n        require(_studentAddress != address(0), \"Invalid student address\");\r\n\r\n        // Validate that the amount is greater than 0 and within a specific limit (e.g., max 100 ETH)\r\n        require(_amount > 0, \"Amount must be greater than 0\");\r\n        require(_amount <= 100 ether, \"Amount exceeds maximum limit\");\r\n\r\n        // Validate that the suggested timestamp is within a valid range (e.g., between MIN_DELAY and MAX_DELAY)\r\n        require(\r\n            _suggestedTime >= block.timestamp + MIN_DELAY &&\r\n                _suggestedTime <= block.timestamp + MAX_DELAY,\r\n            \"Suggested time is out of range\"\r\n        );\r\n\r\n        requestCounter++; // Increment the counter to get a unique ID\r\n\r\n        // Create a new StudentRequest and store it in the mapping\r\n        studentRequests[requestCounter] = StudentRequest(\r\n            requestCounter, // Set the unique ID\r\n            _studentAddress,\r\n            _suggestedTime,\r\n            _amount,\r\n            true\r\n        );\r\n\r\n        // Store the request ID in the array\r\n        requestIds.push(requestCounter);\r\n\r\n        emit RequestSent(\r\n            requestCounter,\r\n            _studentAddress,\r\n            _suggestedTime,\r\n            _amount\r\n        );\r\n    }\r\n\r\n\r\n\r\n    // Function to cancel a student request\r\n    function cancelRequest(uint256 _requestId) external {\r\n        // Check if the request exists\r\n        StudentRequest storage request = studentRequests[_requestId];\r\n        require(request.id != 0, \"Request not found\");\r\n\r\n        // Ensure that only the student who created the request can cancel it\r\n        require(msg.sender == request.studentAddress, \"Not the request owner\");\r\n\r\n        // Ensure the request is still active\r\n        require(request.active, \"Request already canceled\");\r\n\r\n        // Mark the request as canceled\r\n        request.active = false;\r\n\r\n        // Emit event that the request has been canceled\r\n        emit RequestCanceled(_requestId);\r\n    }\r\n\r\n\r\n\r\n\r\n\r\n\r\n\r\n    //Function to iterate over all requests and return their details\r\n    function iterateRequests() public view returns (\r\n        uint256[] memory ids,\r\n        address[] memory studentAddresses,\r\n        uint256[] memory timestamps,\r\n        uint256[] memory amounts,\r\n        bool[] memory activeStatuses\r\n    ) {\r\n        uint256 length = requestIds.length;\r\n\r\n        // Create arrays to hold the request details\r\n        ids = new uint256[](length);\r\n        studentAddresses = new address[](length);\r\n        timestamps = new uint256[](length);\r\n        amounts = new uint256[](length);\r\n        activeStatuses = new bool[](length); \r\n\r\n        for (uint256 i = 0; i < length; i++) {\r\n            uint256 requestId = requestIds[i];\r\n            StudentRequest memory request = studentRequests[requestId];\r\n\r\n            ids[i] = request.id;\r\n            studentAddresses[i] = request.studentAddress;\r\n            timestamps[i] = request.timestamp;\r\n            amounts[i] = request.amount;\r\n            activeStatuses[i] = request.active; \r\n        }\r\n\r\n        return (ids, studentAddresses, timestamps, amounts, activeStatuses);\r\n    }\r\n\r\n    //Sean function\r\n    function getTransferDetails(bytes32 _transactionId) // can be considered\r\n        public\r\n        view\r\n        returns (\r\n            address recipient,\r\n            uint256 amount,\r\n            uint256 unlockTime,\r\n            uint status\r\n        )\r\n    {\r\n        Transaction storage transfer = queued[_transactionId];\r\n        return (\r\n            transfer.target,\r\n            transfer.amount,\r\n            transfer.timestamp,\r\n            transfer.status\r\n        );\r\n    }\r\n\r\n    //Sean function\r\n    function getTransfersByStatus(uint8 _status) // can be considered\r\n        public\r\n        view\r\n        returns (bytes32[] memory)\r\n    {\r\n        uint256 count = 0;\r\n\r\n        // First, count how many transfers match the status\r\n        for (uint256 i = 0; i < keys.length; i++) {\r\n            if (queued[keys[i]].status == _status) {\r\n                count++;\r\n            }\r\n        }\r\n\r\n        // If no transfers are found, return an empty array instead of reverting\r\n        if (count == 0) {\r\n            return new bytes32[](0); // Return an empty array\r\n        }\r\n\r\n        // Then create an array of matching transfer IDs\r\n        bytes32[] memory result = new bytes32[](count);\r\n        uint256 index = 0;\r\n        for (uint256 i = 0; i < keys.length; i++) {\r\n            if (queued[keys[i]].status == _status) {\r\n                result[index] = keys[i];\r\n                index++;\r\n            }\r\n        }\r\n\r\n        return result;\r\n    }\r\n\r\n    function getTransfersByRecipient(address _recipient) \r\n        public\r\n        view\r\n        returns (bytes32[] memory)\r\n    {\r\n        uint256 count = 0;\r\n\r\n        // Count the transfers to the given recipient\r\n        for (uint256 i = 0; i < keys.length; i++) {\r\n            if (queued[keys[i]].target == _recipient) {\r\n                count++;\r\n            }\r\n        }\r\n\r\n        // Then create an array of matching transfer IDs\r\n        bytes32[] memory result = new bytes32[](count);\r\n        uint256 index = 0;\r\n        for (uint256 i = 0; i < keys.length; i++) {\r\n            if (queued[keys[i]].target == _recipient) {\r\n                result[index] = keys[i];\r\n                index++;\r\n            }\r\n        }\r\n\r\n        return result;\r\n    }\r\n\r\n\r\n    function getTransfersByStatusAndRecipient( // can be considered\r\n        uint8 _status,\r\n        address _recipient\r\n    ) public view returns (bytes32[] memory) {\r\n        uint256 count = 0;\r\n\r\n        // Count the transfers that match both criteria\r\n        for (uint256 i = 0; i < keys.length; i++) {\r\n            if (\r\n                queued[keys[i]].status == _status &&\r\n                queued[keys[i]].target == _recipient\r\n            ) {\r\n                count++;\r\n            }\r\n        }\r\n\r\n        // Then create an array of matching transfer IDs\r\n        bytes32[] memory result = new bytes32[](count);\r\n        uint256 index = 0;\r\n        for (uint256 i = 0; i < keys.length; i++) {\r\n            if (\r\n                queued[keys[i]].status == _status &&\r\n                queued[keys[i]].target == _recipient\r\n            ) {\r\n                result[index] = keys[i];\r\n                index++;\r\n            }\r\n        }\r\n\r\n        return result;\r\n    }\r\n\r\n    function getTransfersByStatusPaginated(\r\n        uint8 _status, \r\n        uint256 startIndex, \r\n        uint256 endIndex\r\n    ) public view returns (bytes32[] memory) {\r\n        require(endIndex > startIndex, \"Invalid indices\");\r\n        require(endIndex <= keys.length, \"Index out of bounds\");\r\n\r\n        // Count how many transactions match the status\r\n        uint256 count = 0;\r\n        for (uint256 i = startIndex; i < endIndex && i < keys.length; i++) {\r\n            // Debug: log the status for each key\r\n            if (queued[keys[i]].status == _status) {\r\n                count++;\r\n            }\r\n        }\r\n\r\n        // If no matching transactions, return empty array\r\n        if (count == 0) {\r\n            return new bytes32[](0) ;\r\n        }\r\n\r\n        // Create the result array\r\n        bytes32[] memory result = new bytes32[](count);\r\n        uint256 index = 0;\r\n\r\n        // Populate the result array with matching transactions\r\n        for (uint256 i = startIndex; i < endIndex && i < keys.length; i++) {\r\n            if (queued[keys[i]].status == _status) {\r\n                result[index] = keys[i];\r\n                index++;\r\n            }\r\n        }\r\n\r\n        return result;\r\n    }\r\n\r\n}\r\n\r\n\r\n\r\n\r\n",
  "sourcePath": "C:\\Users\\ryank\\Desktop\\TimelockDApp Final Submission\\contracts\\TimeLockv18.sol",
  "compiler": {
    "name": "solc",
    "version": "0.8.4+commit.c7e474f2.Emscripten.clang"
  },
  "schemaVersion": "3.4.16",
  "updatedAt": "2024-09-26T10:46:10.634Z",
  "networkType": "ethereum",
  "devdoc": {
    "kind": "dev",
    "methods": {},
    "version": 1
  },
  "userdoc": {
    "kind": "user",
    "methods": {},
    "version": 1
  }
}